{
  "contractName": "FiatContract",
  "abi": [
    {
      "constant": true,
      "inputs": [],
      "name": "creator",
      "outputs": [
        {
          "name": "",
          "type": "address"
        }
      ],
      "payable": false,
      "stateMutability": "view",
      "type": "function"
    },
    {
      "constant": true,
      "inputs": [
        {
          "name": "",
          "type": "uint256"
        }
      ],
      "name": "tokens",
      "outputs": [
        {
          "name": "name",
          "type": "string"
        },
        {
          "name": "eth",
          "type": "uint256"
        },
        {
          "name": "usd",
          "type": "uint256"
        },
        {
          "name": "eur",
          "type": "uint256"
        },
        {
          "name": "gbp",
          "type": "uint256"
        },
        {
          "name": "block",
          "type": "uint256"
        }
      ],
      "payable": false,
      "stateMutability": "view",
      "type": "function"
    },
    {
      "constant": true,
      "inputs": [],
      "name": "sender",
      "outputs": [
        {
          "name": "",
          "type": "address"
        }
      ],
      "payable": false,
      "stateMutability": "view",
      "type": "function"
    },
    {
      "inputs": [],
      "payable": false,
      "stateMutability": "nonpayable",
      "type": "constructor"
    },
    {
      "payable": true,
      "stateMutability": "payable",
      "type": "fallback"
    },
    {
      "anonymous": false,
      "inputs": [
        {
          "indexed": false,
          "name": "id",
          "type": "uint256"
        },
        {
          "indexed": false,
          "name": "token",
          "type": "string"
        }
      ],
      "name": "NewPrice",
      "type": "event"
    },
    {
      "anonymous": false,
      "inputs": [
        {
          "indexed": false,
          "name": "id",
          "type": "uint256"
        }
      ],
      "name": "DeletePrice",
      "type": "event"
    },
    {
      "anonymous": false,
      "inputs": [
        {
          "indexed": false,
          "name": "id",
          "type": "uint256"
        }
      ],
      "name": "UpdatedPrice",
      "type": "event"
    },
    {
      "anonymous": false,
      "inputs": [
        {
          "indexed": false,
          "name": "id",
          "type": "uint256"
        }
      ],
      "name": "RequestUpdate",
      "type": "event"
    },
    {
      "anonymous": false,
      "inputs": [
        {
          "indexed": false,
          "name": "from",
          "type": "address"
        }
      ],
      "name": "Donation",
      "type": "event"
    },
    {
      "constant": true,
      "inputs": [
        {
          "name": "_id",
          "type": "uint256"
        }
      ],
      "name": "ETH",
      "outputs": [
        {
          "name": "",
          "type": "uint256"
        }
      ],
      "payable": false,
      "stateMutability": "view",
      "type": "function"
    },
    {
      "constant": true,
      "inputs": [
        {
          "name": "_id",
          "type": "uint256"
        }
      ],
      "name": "USD",
      "outputs": [
        {
          "name": "",
          "type": "uint256"
        }
      ],
      "payable": false,
      "stateMutability": "view",
      "type": "function"
    },
    {
      "constant": true,
      "inputs": [
        {
          "name": "_id",
          "type": "uint256"
        }
      ],
      "name": "EUR",
      "outputs": [
        {
          "name": "",
          "type": "uint256"
        }
      ],
      "payable": false,
      "stateMutability": "view",
      "type": "function"
    },
    {
      "constant": true,
      "inputs": [
        {
          "name": "_id",
          "type": "uint256"
        }
      ],
      "name": "GBP",
      "outputs": [
        {
          "name": "",
          "type": "uint256"
        }
      ],
      "payable": false,
      "stateMutability": "view",
      "type": "function"
    },
    {
      "constant": true,
      "inputs": [
        {
          "name": "_id",
          "type": "uint256"
        }
      ],
      "name": "updatedAt",
      "outputs": [
        {
          "name": "",
          "type": "uint256"
        }
      ],
      "payable": false,
      "stateMutability": "view",
      "type": "function"
    },
    {
      "constant": false,
      "inputs": [
        {
          "name": "id",
          "type": "uint256"
        },
        {
          "name": "_token",
          "type": "string"
        },
        {
          "name": "eth",
          "type": "uint256"
        },
        {
          "name": "usd",
          "type": "uint256"
        },
        {
          "name": "eur",
          "type": "uint256"
        },
        {
          "name": "gbp",
          "type": "uint256"
        }
      ],
      "name": "update",
      "outputs": [],
      "payable": false,
      "stateMutability": "nonpayable",
      "type": "function"
    },
    {
      "constant": false,
      "inputs": [
        {
          "name": "id",
          "type": "uint256"
        }
      ],
      "name": "deleteToken",
      "outputs": [],
      "payable": false,
      "stateMutability": "nonpayable",
      "type": "function"
    },
    {
      "constant": false,
      "inputs": [
        {
          "name": "_creator",
          "type": "address"
        }
      ],
      "name": "changeCreator",
      "outputs": [],
      "payable": false,
      "stateMutability": "nonpayable",
      "type": "function"
    },
    {
      "constant": false,
      "inputs": [
        {
          "name": "_sender",
          "type": "address"
        }
      ],
      "name": "changeSender",
      "outputs": [],
      "payable": false,
      "stateMutability": "nonpayable",
      "type": "function"
    },
    {
      "constant": false,
      "inputs": [
        {
          "name": "_to",
          "type": "address"
        },
        {
          "name": "_value",
          "type": "uint256"
        },
        {
          "name": "_data",
          "type": "bytes"
        }
      ],
      "name": "execute",
      "outputs": [
        {
          "name": "_r",
          "type": "bytes32"
        }
      ],
      "payable": false,
      "stateMutability": "nonpayable",
      "type": "function"
    },
    {
      "constant": false,
      "inputs": [
        {
          "name": "id",
          "type": "uint256"
        }
      ],
      "name": "requestUpdate",
      "outputs": [],
      "payable": true,
      "stateMutability": "payable",
      "type": "function"
    },
    {
      "constant": false,
      "inputs": [],
      "name": "donate",
      "outputs": [],
      "payable": true,
      "stateMutability": "payable",
      "type": "function"
    }
  ],
  "bytecode": "0x608060405234801561001057600080fd5b506002805433600160a060020a03199182168117909255600180549091169091179055610955806100426000396000f3006080604052600436106100da5763ffffffff7c010000000000000000000000000000000000000000000000000000000060003504166302d05d3f81146100dc5780630c560c641461010d5780631833fa4c146101375780634f64b2be146101675780635a8ef28a1461021a5780636297c16c1461023257806367e404ce1461024a57806367f01c041461025f57806374580e2f14610277578063b280a7e714610298578063b61d27f6146102b9578063c14c1ce3146102ea578063c818faec146102f5578063d67ae54d1461030d578063ed88c68e14610325575b005b3480156100e857600080fd5b506100f161032d565b60408051600160a060020a039092168252519081900360200190f35b34801561011957600080fd5b5061012560043561033c565b60408051918252519081900360200190f35b34801561014357600080fd5b506100da60048035906024803590810191013560443560643560843560a435610351565b34801561017357600080fd5b5061017f600435610488565b6040518080602001878152602001868152602001858152602001848152602001838152602001828103825288818151815260200191508051906020019080838360005b838110156101da5781810151838201526020016101c2565b50505050905090810190601f1680156102075780820380516001836020036101000a031916815260200191505b5097505050505050505060405180910390f35b34801561022657600080fd5b50610125600435610544565b34801561023e57600080fd5b506100da600435610559565b34801561025657600080fd5b506100f16105e4565b34801561026b57600080fd5b506101256004356105f3565b34801561028357600080fd5b506100da600160a060020a0360043516610608565b3480156102a457600080fd5b506100da600160a060020a036004351661064e565b3480156102c557600080fd5b5061012560048035600160a060020a0316906024803591604435918201910135610694565b6100da6004356106f5565b34801561030157600080fd5b506101256004356107a0565b34801561031957600080fd5b506101256004356107b5565b6100da6107ca565b600254600160a060020a031681565b60009081526020819052604090206002015490565b600154600160a060020a0316331461036857600080fd5b6040805160e06020601f8901819004028201810190925260c081018781529091829190899089908190850183828082843782019150505050505081526020018581526020018481526020018381526020018281526020014381525060008089815260200190815260200160002060008201518160000190805190602001906103f1929190610847565b506020820151816001015560408201518160020155606082015181600301556080820151816004015560a082015181600501559050507fd766911918e4a4ff28516cc02a5ae3c2096061ee7408787974101985cf9e0628878787604051808481526020018060200182810382528484828181526020019250808284376040519201829003965090945050505050a150505050505050565b6000602081815291815260409081902080548251601f60026000196101006001861615020190931692909204918201859004850281018501909352808352909283919083018282801561051c5780601f106104f15761010080835404028352916020019161051c565b820191906000526020600020905b8154815290600101906020018083116104ff57829003601f168201915b5050505050908060010154908060020154908060030154908060040154908060050154905086565b60009081526020819052604090206004015490565b600254600160a060020a0316331461057057600080fd5b6040805182815290517f8c8f94f5f1a74ad515cd6e033cb9e9cfae911da33cb003cf67cc57b444fd3dd39181900360200190a16000818152602081905260408120906105bc82826108c5565b5060006001820181905560028201819055600382018190556004820181905560059091015550565b600154600160a060020a031681565b60009081526020819052604090206001015490565b600254600160a060020a0316331461061f57600080fd5b6002805473ffffffffffffffffffffffffffffffffffffffff1916600160a060020a0392909216919091179055565b600254600160a060020a0316331461066557600080fd5b6001805473ffffffffffffffffffffffffffffffffffffffff1916600160a060020a0392909216919091179055565b600254600090600160a060020a031633146106ae57600080fd5b84600160a060020a03168484846040518083838082843782019150509250505060006040518083038185875af19250505015156106ea57600080fd5b506000949350505050565b60008080526020527fad3228b676f7d3cd4284a5443f17f1962b36e491b30a40b2405849e597ba5fb7546023023481111561072f57600080fd5b600154604051600160a060020a03909116903480156108fc02916000818181858888f19350505050158015610768573d6000803e3d6000fd5b506040805183815290517fbb23a8e369bdbb341ed2a26729ed4c9e616f51e510b78ef899f5c1791b50de9c9181900360200190a15050565b60009081526020819052604090206005015490565b60009081526020819052604090206003015490565b60003410156107d857600080fd5b600154604051600160a060020a03909116903480156108fc02916000818181858888f19350505050158015610811573d6000803e3d6000fd5b506040805133815290517f187f451f92c6a4236353b5331d5fb67bdbfcc66b54367037fba41d6bcef08ce79181900360200190a1565b828054600181600116156101000203166002900490600052602060002090601f016020900481019282601f1061088857805160ff19168380011785556108b5565b828001600101855582156108b5579182015b828111156108b557825182559160200191906001019061089a565b506108c192915061090c565b5090565b50805460018160011615610100020316600290046000825580601f106108eb5750610909565b601f016020900490600052602060002090810190610909919061090c565b50565b61092691905b808211156108c15760008155600101610912565b905600a165627a7a72305820eb1e375493e84015616f7971d36ec2b29373c00cd94e454bb19b04181aa994c90029",
  "source": "// solium-disable linebreak-style\r\npragma solidity ^0.4.15;\r\n\r\n/*\r\n\r\n  Crypto Market Prices via Ethereum Smart Contract\r\n\r\n  A community driven smart contract that lets your contracts use fiat\r\n  amounts in USD, EURO, and GBP. Need to charge $10.50 for a contract call?\r\n  With this contract, you can convert ETH and other crypto's.\r\n\r\n  Repo: https://github.com/hunterlong/coinmarketcontract\r\n\r\n  Examples:\r\n\r\n    FiatContract price = FiatContract(CONTRACT_ADDRESS);\r\n\r\n    uint256 ethCent = price.USD(0);    // returns $0.01 worth of ETH in USD.\r\n    uint256 weiAmount = ethCent * 2500   // returns $25.00 worth of ETH in USD\r\n    require(msg.value == weiAmount);     // require $25.00 worth of ETH as a payment\r\n    \r\n  Please look at Repo or Website to get Currency ID values.\r\n\r\n  @author Hunter Long\r\n*/\r\n\r\ncontract FiatContract {\r\n\r\n  mapping(uint => Token) public tokens;\r\n\r\n  address public sender;\r\n  address public creator;\r\n\r\n  event NewPrice(uint id, string token);\r\n  event DeletePrice(uint id);\r\n  event UpdatedPrice(uint id);\r\n  event RequestUpdate(uint id);\r\n  event Donation(address from);\r\n\r\n  struct Token {\r\n    string name;\r\n    uint256 eth;\r\n    uint256 usd;\r\n    uint256 eur;\r\n    uint256 gbp;\r\n    uint block;\r\n  }\r\n\r\n  // initialize function\r\n  function FiatContract() {\r\n    creator = msg.sender;\r\n    sender = msg.sender;\r\n  }\r\n\r\n  // returns the Token struct\r\n  function getToken(uint _id) internal constant returns (Token) {\r\n    return tokens[_id];\r\n  }\r\n\r\n  // returns rate price of coin related to ETH.\r\n  function ETH(uint _id) constant returns (uint256) {\r\n    return tokens[_id].eth;\r\n  }\r\n\r\n  // returns 0.01 value in United States Dollar\r\n  function USD(uint _id) constant returns (uint256) {\r\n    return tokens[_id].usd;\r\n  }\r\n\r\n  // returns 0.01 value in Euro\r\n  function EUR(uint _id) constant returns (uint256) {\r\n    return tokens[_id].eur;\r\n  }\r\n\r\n  // returns 0.01 value in British Pound\r\n  function GBP(uint _id) constant returns (uint256) {\r\n    return tokens[_id].gbp;\r\n  }\r\n\r\n  // returns block when price was updated last\r\n  function updatedAt(uint _id) constant returns (uint) {\r\n    return tokens[_id].block;\r\n  }\r\n\r\n  // update market rates in USD, EURO, and GBP for a specific coin\r\n  function update(uint id, string _token, uint256 eth, uint256 usd, uint256 eur, uint256 gbp) external {\r\n    require(msg.sender==sender);\r\n    tokens[id] = Token(_token, eth, usd, eur, gbp, block.number);\r\n    NewPrice(id, _token);\r\n  }\r\n\r\n  // delete a token from the contract\r\n  function deleteToken(uint id) {\r\n    require(msg.sender==creator);\r\n    DeletePrice(id);\r\n    delete tokens[id];\r\n  }\r\n\r\n  // change creator address\r\n  function changeCreator(address _creator){\r\n    require(msg.sender==creator);\r\n    creator = _creator;\r\n  }\r\n\r\n  // change sender address\r\n  function changeSender(address _sender){\r\n    require(msg.sender==creator);\r\n    sender = _sender;\r\n  }\r\n\r\n  // execute function for creator if ERC20's get stuck in this wallet\r\n  function execute(address _to, uint _value, bytes _data) external returns (bytes32 _r) {\r\n    require(msg.sender==creator);\r\n    require(_to.call.value(_value)(_data));\r\n    return 0;\r\n  }\r\n\r\n  // default function so this contract can accept ETH with low gas limits.\r\n  function() payable {\r\n\r\n  }\r\n\r\n  // public function for requesting an updated price from server\r\n  // using this function requires a payment of $0.35 USD\r\n  function requestUpdate(uint id) external payable {\r\n    uint256 weiAmount = tokens[0].usd * 35;\r\n    require(msg.value >= weiAmount);\r\n    sender.transfer(msg.value);\r\n    RequestUpdate(id);\r\n  }\r\n\r\n  // donation function that get forwarded to the contract updater\r\n  function donate() external payable {\r\n    require(msg.value >= 0);\r\n    sender.transfer(msg.value);\r\n    Donation(msg.sender);\r\n  }\r\n\r\n}",
  "sourcePath": "C:\\Users\\carlo\\Desktop\\Pedro's List\\contracts\\FiatContract.sol",
  "compiler": {
    "name": "solc",
    "version": "0.4.24+commit.e67f0147.Emscripten.clang"
  },
  "schemaVersion": "2.0.1",
  "updatedAt": "2019-02-01T23:12:40.625Z"
}