{
  "contractName": "RewardsPayer",
  "abi": [
    {
      "constant": true,
      "inputs": [],
      "name": "currentFiatContract",
      "outputs": [
        {
          "name": "",
          "type": "address"
        }
      ],
      "payable": false,
      "stateMutability": "view",
      "type": "function"
    },
    {
      "constant": true,
      "inputs": [],
      "name": "currentToken",
      "outputs": [
        {
          "name": "",
          "type": "address"
        }
      ],
      "payable": false,
      "stateMutability": "view",
      "type": "function"
    },
    {
      "inputs": [
        {
          "name": "pedro_ERC20TokenAddress",
          "type": "address"
        },
        {
          "name": "currentFiatContractAddress",
          "type": "address"
        }
      ],
      "payable": false,
      "stateMutability": "nonpayable",
      "type": "constructor"
    },
    {
      "constant": false,
      "inputs": [
        {
          "name": "Pedro_ERC20TokenAddress",
          "type": "address"
        }
      ],
      "name": "setCurrentTokenAddress",
      "outputs": [],
      "payable": false,
      "stateMutability": "nonpayable",
      "type": "function"
    },
    {
      "constant": false,
      "inputs": [
        {
          "name": "service_price",
          "type": "uint256"
        },
        {
          "name": "consumer",
          "type": "address"
        },
        {
          "name": "provider",
          "type": "address"
        }
      ],
      "name": "pay",
      "outputs": [],
      "payable": false,
      "stateMutability": "nonpayable",
      "type": "function"
    }
  ],
  "bytecode": "0x608060405234801561001057600080fd5b506040516040806105e583398101604081815282516020938401516002547f0c560c64000000000000000000000000000000000000000000000000000000008552600060048601819052935192959194600160a060020a0390911693630c560c6493602480840194939192918390030190829087803b15801561009257600080fd5b505af11580156100a6573d6000803e3d6000fd5b505050506040513d60208110156100bc57600080fd5b505160045560018054600160a060020a03938416600160a060020a031991821617918290556000805482169285169290921790915560038054929093169181168217909255600280549092161790556104cb8061011a6000396000f3006080604052600436106100615763ffffffff7c01000000000000000000000000000000000000000000000000000000006000350416630450cb768114610066578063048c677614610096578063836c081d146100d4578063cc71a22a146100e9575b600080fd5b34801561007257600080fd5b5061009473ffffffffffffffffffffffffffffffffffffffff60043516610120565b005b3480156100a257600080fd5b506100ab610169565b6040805173ffffffffffffffffffffffffffffffffffffffff9092168252519081900360200190f35b3480156100e057600080fd5b506100ab610185565b3480156100f557600080fd5b5061009460043573ffffffffffffffffffffffffffffffffffffffff602435811690604435166101a1565b6001805473ffffffffffffffffffffffffffffffffffffffff1990811673ffffffffffffffffffffffffffffffffffffffff938416179182905560008054929093169116179055565b60035473ffffffffffffffffffffffffffffffffffffffff1681565b60015473ffffffffffffffffffffffffffffffffffffffff1681565b60006101ac84610209565b6000549091506101d99073ffffffffffffffffffffffffffffffffffffffff16848363ffffffff61026916565b6000546102039073ffffffffffffffffffffffffffffffffffffffff16838363ffffffff61026916565b50505050565b600080600080610225602d6004546103d090919063ffffffff16565b925061023885600a63ffffffff61048a16565b60045490925061024e908363ffffffff6103d016565b9050610260818463ffffffff61048a16565b95945050505050565b8273ffffffffffffffffffffffffffffffffffffffff1663a9059cbb83836040518363ffffffff167c0100000000000000000000000000000000000000000000000000000000028152600401808373ffffffffffffffffffffffffffffffffffffffff1673ffffffffffffffffffffffffffffffffffffffff16815260200182815260200192505050602060405180830381600087803b15801561030c57600080fd5b505af1158015610320573d6000803e3d6000fd5b505050506040513d602081101561033657600080fd5b505115156103cb57604080517f08c379a000000000000000000000000000000000000000000000000000000000815260206004820152602c60248201527f436f756c64206e6f7420736166656c79207472616e736665722066726f6d207460448201527f68617420616464726573732e0000000000000000000000000000000000000000606482015290519081900360840190fd5b505050565b60008215156103e157506000610484565b508181028183828115156103f157fe5b041461048457604080517f08c379a000000000000000000000000000000000000000000000000000000000815260206004820152602160248201527f4d756c7469706c69636174696f6e206f766572666c6f77732075696e7432353660448201527f2e00000000000000000000000000000000000000000000000000000000000000606482015290519081900360840190fd5b92915050565b6000818381151561049757fe5b0493925050505600a165627a7a72305820cf018c1faa44e56f338a8cea660eb6ecb5ad404be2b7a4cb2b228e4809a3dcdc0029",
  "source": "// solium-disable linebreak-style\r\npragma solidity ^0.4.23;\r\n\r\nimport \"./Pedro_ERC20Token.sol\";\r\n\r\ncontract RewardsPayer {\r\n  \r\n  Pedro_ERC20Token pedro_ERC20Token;\r\n  address public currentToken;\r\n  \r\n  FiatContract fiatContract;\r\n  address public currentFiatContract;\r\n\r\n  uint256 USDCent_inETHWei;\r\n\r\n  constructor(\r\n    address pedro_ERC20TokenAddress,\r\n    address currentFiatContractAddress\r\n  ) \r\n  public \r\n  {\r\n    USDCent_inETHWei = fiatContract.USD(0);\r\n\r\n    currentToken = pedro_ERC20TokenAddress;\r\n    pedro_ERC20Token = Pedro_ERC20Token(currentToken);\r\n    \r\n    currentFiatContract = currentFiatContractAddress;\r\n    fiatContract = FiatContract(currentFiatContractAddress);\r\n  }\r\n\r\n\r\n\r\n\r\n  function setCurrentTokenAddress(address Pedro_ERC20TokenAddress) \r\n  external \r\n  {\r\n    currentToken = Pedro_ERC20TokenAddress;\r\n    pedro_ERC20Token = Pedro_ERC20Token(currentToken);\r\n  }\r\n\r\n\r\n\r\n  using SafeMath for uint256;\r\n  using SafeERC20 for Pedro_ERC20Token;\r\n\r\n  function pay(\r\n/*     uint32 review_id,\r\n    uint32 provider_id,\r\n    bool service_done,\r\n    bool hire_again,\r\n    uint8 overall_rating, */\r\n    uint service_price, /** @param service_price Price in USD cents. 1 USD = 100 USD cents */\r\n/*     uint8 price_satisfaction,\r\n    uint8 responsiveness,\r\n    uint8 professionalism,\r\n    uint8 satisfaction */\r\n    address consumer,\r\n    address provider\r\n  )\r\n  public\r\n  {\r\n    uint256 tokenAmount = _rewardAmount(service_price);\r\n    pedro_ERC20Token.safeTransfer(consumer, tokenAmount);\r\n    pedro_ERC20Token.safeTransfer(provider, tokenAmount);\r\n  }\r\n\r\n  function _rewardAmount(uint service_price) \r\n  internal\r\n  view\r\n  returns(\r\n    uint256 rewardAmount\r\n  )\r\n  {\r\n    uint256 tokenPrice_inETHWei = USDCent_inETHWei.mul(45);\r\n\r\n    uint256 fractionOfPrice_inUSDCents = service_price.div(10);\r\n    uint256 fractionOfPrice_inETHWei = USDCent_inETHWei.mul(fractionOfPrice_inUSDCents);\r\n\r\n    rewardAmount = fractionOfPrice_inETHWei.div(tokenPrice_inETHWei);\r\n  }\r\n}\r\n\r\n\r\n\r\n\r\ninterface FiatContract {\r\n  function ETH(uint _id) external view returns (uint256);\r\n  function USD(uint _id) external view returns (uint256);\r\n  function EUR(uint _id) external view returns (uint256);\r\n  function GBP(uint _id) external view returns (uint256);\r\n  function updatedAt(uint _id) external view returns (uint);\r\n}\r\n\r\n\r\n\r\n\r\n/**\r\n * @title SafeERC20\r\n * @dev Wrappers around ERC20 operations that throw on failure.\r\n * To use this library you can add a `using SafeERC20 for ERC20;` statement to your contract,\r\n * which allows you to call the safe operations as `token.safeTransfer(...)`, etc.\r\n */\r\nlibrary SafeERC20 {\r\n  function safeTransfer(\r\n    Pedro_ERC20Token _token,\r\n    address _to,\r\n    uint256 _value\r\n  )\r\n    internal\r\n  {\r\n    require(_token.transfer(_to, _value),\"Could not safely transfer from that address.\");\r\n  }\r\n\r\n  function safeTransferFrom(\r\n    Pedro_ERC20Token _token,\r\n    address _from,\r\n    address _to,\r\n    uint256 _value\r\n  )\r\n    internal\r\n  {\r\n    require(_token.transferFrom(_from, _to, _value),\"Could not safely transfer from that address.\");\r\n  }\r\n\r\n  function safeApprove(\r\n    Pedro_ERC20Token _token,\r\n    address _spender,\r\n    uint256 _currentValue,\r\n    uint256 _value\r\n  )\r\n    internal\r\n  {\r\n    require(_token.approve(_spender, _currentValue, _value),\"Could not safely approve, check current approved value.\");\r\n  }\r\n}",
  "sourcePath": "C:\\Users\\carlo\\Desktop\\Pedro's List\\contracts\\RewardsPayer.sol",
  "compiler": {
    "name": "solc",
    "version": "0.4.24+commit.e67f0147.Emscripten.clang"
  },
  "schemaVersion": "2.0.1",
  "updatedAt": "2019-02-01T22:49:09.365Z"
}