{
  "contractName": "Pedro_ERC20Token",
  "abi": [
    {
      "constant": true,
      "inputs": [],
      "name": "mintingFinished",
      "outputs": [
        {
          "name": "",
          "type": "bool"
        }
      ],
      "payable": false,
      "stateMutability": "view",
      "type": "function"
    },
    {
      "constant": true,
      "inputs": [],
      "name": "name",
      "outputs": [
        {
          "name": "",
          "type": "string"
        }
      ],
      "payable": false,
      "stateMutability": "view",
      "type": "function"
    },
    {
      "constant": true,
      "inputs": [],
      "name": "INITIAL_SUPPLY",
      "outputs": [
        {
          "name": "",
          "type": "uint256"
        }
      ],
      "payable": false,
      "stateMutability": "view",
      "type": "function"
    },
    {
      "constant": true,
      "inputs": [],
      "name": "decimals",
      "outputs": [
        {
          "name": "",
          "type": "uint256"
        }
      ],
      "payable": false,
      "stateMutability": "view",
      "type": "function"
    },
    {
      "constant": true,
      "inputs": [],
      "name": "totalSupply_",
      "outputs": [
        {
          "name": "",
          "type": "uint256"
        }
      ],
      "payable": false,
      "stateMutability": "view",
      "type": "function"
    },
    {
      "constant": true,
      "inputs": [],
      "name": "owner",
      "outputs": [
        {
          "name": "",
          "type": "address"
        }
      ],
      "payable": false,
      "stateMutability": "view",
      "type": "function"
    },
    {
      "constant": true,
      "inputs": [],
      "name": "symbol",
      "outputs": [
        {
          "name": "",
          "type": "string"
        }
      ],
      "payable": false,
      "stateMutability": "view",
      "type": "function"
    },
    {
      "inputs": [],
      "payable": false,
      "stateMutability": "nonpayable",
      "type": "constructor"
    },
    {
      "anonymous": false,
      "inputs": [
        {
          "indexed": true,
          "name": "_from",
          "type": "address"
        },
        {
          "indexed": true,
          "name": "_to",
          "type": "address"
        },
        {
          "indexed": false,
          "name": "value",
          "type": "uint256"
        }
      ],
      "name": "Transfer",
      "type": "event"
    },
    {
      "anonymous": false,
      "inputs": [
        {
          "indexed": true,
          "name": "_spender",
          "type": "address"
        },
        {
          "indexed": true,
          "name": "_from",
          "type": "address"
        },
        {
          "indexed": true,
          "name": "_to",
          "type": "address"
        },
        {
          "indexed": false,
          "name": "_value",
          "type": "uint256"
        }
      ],
      "name": "Transfer",
      "type": "event"
    },
    {
      "anonymous": false,
      "inputs": [
        {
          "indexed": true,
          "name": "_owner",
          "type": "address"
        },
        {
          "indexed": true,
          "name": "_spender",
          "type": "address"
        },
        {
          "indexed": false,
          "name": "value",
          "type": "uint256"
        }
      ],
      "name": "Approval",
      "type": "event"
    },
    {
      "anonymous": false,
      "inputs": [
        {
          "indexed": true,
          "name": "_owner",
          "type": "address"
        },
        {
          "indexed": true,
          "name": "_spender",
          "type": "address"
        },
        {
          "indexed": false,
          "name": "_oldValue",
          "type": "uint256"
        },
        {
          "indexed": false,
          "name": "_value",
          "type": "uint256"
        }
      ],
      "name": "Approval",
      "type": "event"
    },
    {
      "anonymous": false,
      "inputs": [
        {
          "indexed": true,
          "name": "previousOwner",
          "type": "address"
        }
      ],
      "name": "OwnershipRenounced",
      "type": "event"
    },
    {
      "anonymous": false,
      "inputs": [
        {
          "indexed": true,
          "name": "previousOwner",
          "type": "address"
        },
        {
          "indexed": true,
          "name": "newOwner",
          "type": "address"
        }
      ],
      "name": "OwnershipTransferred",
      "type": "event"
    },
    {
      "anonymous": false,
      "inputs": [
        {
          "indexed": true,
          "name": "to",
          "type": "address"
        },
        {
          "indexed": false,
          "name": "amount",
          "type": "uint256"
        }
      ],
      "name": "Mint",
      "type": "event"
    },
    {
      "anonymous": false,
      "inputs": [],
      "name": "MintFinished",
      "type": "event"
    },
    {
      "anonymous": false,
      "inputs": [
        {
          "indexed": true,
          "name": "burner",
          "type": "address"
        },
        {
          "indexed": false,
          "name": "value",
          "type": "uint256"
        }
      ],
      "name": "Burn",
      "type": "event"
    },
    {
      "constant": true,
      "inputs": [],
      "name": "totalSupply",
      "outputs": [
        {
          "name": "",
          "type": "uint256"
        }
      ],
      "payable": false,
      "stateMutability": "view",
      "type": "function"
    },
    {
      "constant": false,
      "inputs": [
        {
          "name": "_to",
          "type": "address"
        },
        {
          "name": "_value",
          "type": "uint256"
        }
      ],
      "name": "transfer",
      "outputs": [
        {
          "name": "",
          "type": "bool"
        }
      ],
      "payable": false,
      "stateMutability": "nonpayable",
      "type": "function"
    },
    {
      "constant": true,
      "inputs": [
        {
          "name": "_owner",
          "type": "address"
        }
      ],
      "name": "balanceOf",
      "outputs": [
        {
          "name": "",
          "type": "uint256"
        }
      ],
      "payable": false,
      "stateMutability": "view",
      "type": "function"
    },
    {
      "constant": false,
      "inputs": [
        {
          "name": "_from",
          "type": "address"
        },
        {
          "name": "_to",
          "type": "address"
        },
        {
          "name": "_value",
          "type": "uint256"
        }
      ],
      "name": "transferFrom",
      "outputs": [
        {
          "name": "",
          "type": "bool"
        }
      ],
      "payable": false,
      "stateMutability": "nonpayable",
      "type": "function"
    },
    {
      "constant": false,
      "inputs": [
        {
          "name": "_from",
          "type": "address"
        },
        {
          "name": "_to",
          "type": "address"
        },
        {
          "name": "_value",
          "type": "uint256"
        }
      ],
      "name": "_transferFrom",
      "outputs": [
        {
          "name": "",
          "type": "bool"
        }
      ],
      "payable": false,
      "stateMutability": "nonpayable",
      "type": "function"
    },
    {
      "constant": false,
      "inputs": [
        {
          "name": "_spender",
          "type": "address"
        },
        {
          "name": "_currentValue",
          "type": "uint256"
        },
        {
          "name": "_value",
          "type": "uint256"
        }
      ],
      "name": "approve",
      "outputs": [
        {
          "name": "",
          "type": "bool"
        }
      ],
      "payable": false,
      "stateMutability": "nonpayable",
      "type": "function"
    },
    {
      "constant": true,
      "inputs": [
        {
          "name": "_owner",
          "type": "address"
        },
        {
          "name": "_spender",
          "type": "address"
        }
      ],
      "name": "allowance",
      "outputs": [
        {
          "name": "",
          "type": "uint256"
        }
      ],
      "payable": false,
      "stateMutability": "view",
      "type": "function"
    },
    {
      "constant": false,
      "inputs": [
        {
          "name": "_spender",
          "type": "address"
        },
        {
          "name": "_addedValue",
          "type": "uint256"
        }
      ],
      "name": "increaseApproval",
      "outputs": [
        {
          "name": "",
          "type": "bool"
        }
      ],
      "payable": false,
      "stateMutability": "nonpayable",
      "type": "function"
    },
    {
      "constant": false,
      "inputs": [
        {
          "name": "_spender",
          "type": "address"
        },
        {
          "name": "_subtractedValue",
          "type": "uint256"
        }
      ],
      "name": "decreaseApproval",
      "outputs": [
        {
          "name": "",
          "type": "bool"
        }
      ],
      "payable": false,
      "stateMutability": "nonpayable",
      "type": "function"
    },
    {
      "constant": false,
      "inputs": [],
      "name": "renounceOwnership",
      "outputs": [],
      "payable": false,
      "stateMutability": "nonpayable",
      "type": "function"
    },
    {
      "constant": false,
      "inputs": [
        {
          "name": "_newOwner",
          "type": "address"
        }
      ],
      "name": "transferOwnership",
      "outputs": [],
      "payable": false,
      "stateMutability": "nonpayable",
      "type": "function"
    },
    {
      "constant": false,
      "inputs": [
        {
          "name": "_to",
          "type": "address"
        },
        {
          "name": "_amount",
          "type": "uint256"
        }
      ],
      "name": "mint",
      "outputs": [
        {
          "name": "",
          "type": "bool"
        }
      ],
      "payable": false,
      "stateMutability": "nonpayable",
      "type": "function"
    },
    {
      "constant": false,
      "inputs": [],
      "name": "finishMinting",
      "outputs": [
        {
          "name": "",
          "type": "bool"
        }
      ],
      "payable": false,
      "stateMutability": "nonpayable",
      "type": "function"
    },
    {
      "constant": false,
      "inputs": [
        {
          "name": "_value",
          "type": "uint256"
        }
      ],
      "name": "burn",
      "outputs": [],
      "payable": false,
      "stateMutability": "nonpayable",
      "type": "function"
    }
  ],
  "bytecode": "0x60c0604052601a60808190527f506564726f2773204c697374205574696c69747920546f6b656e00000000000060a0908152620000409160009190620000fa565b506040805180820190915260058082527f504544524f00000000000000000000000000000000000000000000000000000060209092019182526200008791600191620000fa565b50600280556405efeb1f006003556006805460ff191690556008805460a060020a60ff0219169055348015620000bc57600080fd5b5060088054600160a060020a0319163317908190556003546004819055600160a060020a03919091166000908152600560205260409020556200019f565b828054600181600116156101000203166002900490600052602060002090601f016020900481019282601f106200013d57805160ff19168380011785556200016d565b828001600101855582156200016d579182015b828111156200016d57825182559160200191906001019062000150565b506200017b9291506200017f565b5090565b6200019c91905b808211156200017b576000815560010162000186565b90565b6112e480620001af6000396000f30060806040526004361061011c5763ffffffff7c010000000000000000000000000000000000000000000000000000000060003504166305d2035b811461012157806306fdde031461014a57806318160ddd146101d457806323b872dd146101fb5780632ff2e9dc14610225578063313ce5671461023a578063324536eb1461024f57806340c10f1914610264578063426a84931461028857806342966c68146102af57806366188463146102c957806370a08231146102ed578063715018a61461030e5780637d64bcb4146103235780638da5cb5b1461033857806395d89b4114610369578063a9059cbb1461037e578063cb712535146103a2578063d73dd623146103cc578063dd62ed3e146103f0578063f2fde38b14610417575b600080fd5b34801561012d57600080fd5b50610136610438565b604080519115158252519081900360200190f35b34801561015657600080fd5b5061015f610459565b6040805160208082528351818301528351919283929083019185019080838360005b83811015610199578181015183820152602001610181565b50505050905090810190601f1680156101c65780820380516001836020036101000a031916815260200191505b509250505060405180910390f35b3480156101e057600080fd5b506101e96104e7565b60408051918252519081900360200190f35b34801561020757600080fd5b50610136600160a060020a03600435811690602435166044356104ed565b34801561023157600080fd5b506101e9610502565b34801561024657600080fd5b506101e9610508565b34801561025b57600080fd5b506101e961050e565b34801561027057600080fd5b50610136600160a060020a0360043516602435610514565b34801561029457600080fd5b50610136600160a060020a0360043516602435604435610631565b3480156102bb57600080fd5b506102c7600435610710565b005b3480156102d557600080fd5b50610136600160a060020a036004351660243561071d565b3480156102f957600080fd5b506101e9600160a060020a036004351661080f565b34801561031a57600080fd5b506102c761082a565b34801561032f57600080fd5b50610136610898565b34801561034457600080fd5b5061034d61093e565b60408051600160a060020a039092168252519081900360200190f35b34801561037557600080fd5b5061015f61094d565b34801561038a57600080fd5b50610136600160a060020a03600435166024356109a7565b3480156103ae57600080fd5b50610136600160a060020a03600435811690602435166044356109b3565b3480156103d857600080fd5b50610136600160a060020a0360043516602435610da7565b3480156103fc57600080fd5b506101e9600160a060020a0360043581169060243516610e40565b34801561042357600080fd5b506102c7600160a060020a0360043516610e6b565b60085474010000000000000000000000000000000000000000900460ff1681565b6000805460408051602060026001851615610100026000190190941693909304601f810184900484028201840190925281815292918301828280156104df5780601f106104b4576101008083540402835291602001916104df565b820191906000526020600020905b8154815290600101906020018083116104c257829003601f168201915b505050505081565b60045490565b60006104fa8484846109b3565b509392505050565b60035481565b60025481565b60045481565b600854600090600160a060020a0316331461052e57600080fd5b60085474010000000000000000000000000000000000000000900460ff161561055657600080fd5b600454610569908363ffffffff610e8b16565b600455600160a060020a038316600090815260056020526040902054610595908363ffffffff610e8b16565b600160a060020a038416600081815260056020908152604091829020939093558051858152905191927f0f6798a560793a54c3bcfe86a93cde1e73087d944c0ea20544137d412139688592918290030190a2604080518381529051600160a060020a038516916000917fddf252ad1be2c89b69c2b068fc378daa952ba7f163c4a11628f55a4df523b3ef9181900360200190a350600192915050565b336000908152600760209081526040808320600160a060020a0387168452909152812054831461066057600080fd5b336000818152600760209081526040808320600160a060020a03891680855290835292819020869055805186815290519293927f8c5be1e5ebec7d5bd14f71427d1e84f3dd0314c0f7b2291e5b200ac8c7c3b925929181900390910190a360408051848152602081018490528151600160a060020a0387169233927fb3fd5071835887567a0671151121894ddccc2842f1d10bedad13e0d17cace9a7929081900390910190a35060019392505050565b61071a3382610ef1565b50565b336000908152600760209081526040808320600160a060020a03861684529091528120548083111561077257336000908152600760209081526040808320600160a060020a03881684529091528120556107a7565b610782818463ffffffff610ff216565b336000908152600760209081526040808320600160a060020a03891684529091529020555b336000818152600760209081526040808320600160a060020a0389168085529083529281902054815190815290519293927f8c5be1e5ebec7d5bd14f71427d1e84f3dd0314c0f7b2291e5b200ac8c7c3b925929181900390910190a3600191505b5092915050565b600160a060020a031660009081526005602052604090205490565b600854600160a060020a0316331461084157600080fd5b600854604051600160a060020a03909116907ff8df31144d9c2f0f6b59d69b8b98abd5459d07f2742c4df920b25aae33c6482090600090a26008805473ffffffffffffffffffffffffffffffffffffffff19169055565b600854600090600160a060020a031633146108b257600080fd5b60085474010000000000000000000000000000000000000000900460ff16156108da57600080fd5b6008805474ff00000000000000000000000000000000000000001916740100000000000000000000000000000000000000001790556040517fae5184fba832cb2b1f702aca6117b8d265eaf03ad33eb133f19dde0f5920fa0890600090a150600190565b600854600160a060020a031681565b60018054604080516020600284861615610100026000190190941693909304601f810184900484028201840190925281815292918301828280156104df5780601f106104b4576101008083540402835291602001916104df565b6000610808838361107d565b60065460009060ff1615610a165760408051600080516020611299833981519152815260206004820152601860248201527f5265656e7472616e6379206c6f636b206973206f6e203b290000000000000000604482015290519081900360640190fd5b6006805460ff19166001179055600160a060020a0383161515610aae5760408051600080516020611299833981519152815260206004820152602560248201527f43616e27742073656e6420746f6b656e7320746f20746865203078302061646460448201527f726573732e000000000000000000000000000000000000000000000000000000606482015290519081900360840190fd5b600160a060020a038416600090815260056020526040902054821115610b6f5760408051600080516020611299833981519152815260206004820152604c60248201527f546f6b656e20616d6f756e7420746f2073656e64206d75737420626520736d6160448201527f6c6c6572207468616e207468652062616c616e636520796f752077616e74207460648201527f6f2073656e642066726f6d2e0000000000000000000000000000000000000000608482015290519081900360a40190fd5b600160a060020a0384166000908152600760209081526040808320338452909152902054821115610c3b5760408051600080516020611299833981519152815260206004820152605860248201527f546f6b656e20616d6f756e7420746f2073656e64206d75737420626520736d6160448201527f6c6c6572207468616e207468617420796f7527726520616c6c6f77656420746f60648201527f2073656e642066726f6d207468697320616464726573732e0000000000000000608482015290519081900360a40190fd5b600160a060020a038416600090815260056020526040902054610c64908363ffffffff610ff216565b600160a060020a038086166000908152600560205260408082209390935590851681522054610c99908363ffffffff610e8b16565b600160a060020a038085166000908152600560209081526040808320949094559187168152600782528281203382529091522054610cdd908363ffffffff610ff216565b600160a060020a03808616600081815260076020908152604080832033845282529182902094909455805186815290519287169391927fddf252ad1be2c89b69c2b068fc378daa952ba7f163c4a11628f55a4df523b3ef929181900390910190a382600160a060020a031684600160a060020a031633600160a060020a03167fd1398bee19313d6bf672ccb116e51f4a1a947e91c757907f51fbb5b5e56c698f856040518082815260200191505060405180910390a45060016006805460ff191690559392505050565b336000908152600760209081526040808320600160a060020a0386168452909152812054610ddb908363ffffffff610e8b16565b336000818152600760209081526040808320600160a060020a0389168085529083529281902085905580519485525191937f8c5be1e5ebec7d5bd14f71427d1e84f3dd0314c0f7b2291e5b200ac8c7c3b925929081900390910190a350600192915050565b600160a060020a03918216600090815260076020908152604080832093909416825291909152205490565b600854600160a060020a03163314610e8257600080fd5b61071a8161121a565b81810182811015610eeb5760408051600080516020611299833981519152815260206004820152601b60248201527f4164646974696f6e206f766572666c6f77732075696e743235362e0000000000604482015290519081900360640190fd5b92915050565b600160a060020a038216600090815260056020526040902054811115610f1657600080fd5b600160a060020a038216600090815260056020526040902054610f3f908263ffffffff610ff216565b600160a060020a038316600090815260056020526040902055600454610f6b908263ffffffff610ff216565b600455604080518281529051600160a060020a038416917fcc16f5dbb4873280815c1ee09dbd06736cffcc184412cf7a71a0fdb75d397ca5919081900360200190a2604080518281529051600091600160a060020a038516917fddf252ad1be2c89b69c2b068fc378daa952ba7f163c4a11628f55a4df523b3ef9181900360200190a35050565b6000818310156110775760408051600080516020611299833981519152815260206004820152602360248201527f53756274726168656e642069732067726561746572207468616e206d696e756560448201527f6e642e0000000000000000000000000000000000000000000000000000000000606482015290519081900360840190fd5b50900390565b60065460009060ff16156110e05760408051600080516020611299833981519152815260206004820152601860248201527f5265656e7472616e6379206c6f636b206973206f6e203b290000000000000000604482015290519081900360640190fd5b6006805460ff19166001179055600160a060020a038316151561110257600080fd5b3360009081526005602052604090205482111561111e57600080fd5b3360009081526005602052604090205461113e908363ffffffff610ff216565b3360009081526005602052604080822092909255600160a060020a03851681522054611170908363ffffffff610e8b16565b600160a060020a0384166000818152600560209081526040918290209390935580518581529051919233927fddf252ad1be2c89b69c2b068fc378daa952ba7f163c4a11628f55a4df523b3ef9281900390910190a3604080518381529051600160a060020a03851691339182917fd1398bee19313d6bf672ccb116e51f4a1a947e91c757907f51fbb5b5e56c698f919081900360200190a450506006805460ff1916905550600190565b600160a060020a038116151561122f57600080fd5b600854604051600160a060020a038084169216907f8be0079c531659141344cd1fd0a4f28419497f9722a3daafe3b4186f6b6457e090600090a36008805473ffffffffffffffffffffffffffffffffffffffff1916600160a060020a0392909216919091179055560008c379a000000000000000000000000000000000000000000000000000000000a165627a7a72305820e4284d252505a5ec88fb7e36ccdf76bd5fa15986901c36cffd0011f244705d4e0029",
  "source": "// solium-disable linebreak-style\r\npragma solidity ^0.4.23;\r\n\r\ncontract Pedro_ERC20Token {\r\n  string public name = \"Pedro's List Utility Token\";\r\n  string public symbol = \"PEDRO\";\r\n  uint public decimals = 2;\r\n  uint public INITIAL_SUPPLY = 255000000 * 10**uint(decimals);\r\n  uint256 public totalSupply_;\r\n\r\n  using SafeMath for uint256;\r\n\r\n  /**\r\n  * @dev The Ownable constructor sets the original `owner` of the contract to the sender\r\n  * account.\r\n  */\r\n  constructor() \r\n  public \r\n  {\r\n    owner = msg.sender;\r\n    totalSupply_ = INITIAL_SUPPLY;\r\n    balances[owner] = INITIAL_SUPPLY;\r\n  }\r\n\r\n  mapping(address => uint256) balances;\r\n\r\n  /**\r\n  * @dev We use a single lock for the whole contract.\r\n  */\r\n  bool private reentrancyLock = false;\r\n\r\n  /**\r\n  * @dev Prevents a contract from calling itself, directly or indirectly.\r\n  * @notice If you mark a function `nonReentrant`, you should also\r\n  * mark it `external`. Calling one nonReentrant function from\r\n  * another is not supported. Instead, you can implement a\r\n  * `private` function doing the actual work, and a `external`\r\n  * wrapper marked as `nonReentrant`.\r\n  */\r\n  modifier nonReentrant() \r\n  {\r\n    require(!reentrancyLock,\"Reentrancy lock is on ;)\");\r\n    reentrancyLock = true;\r\n    _;\r\n    reentrancyLock = false;\r\n  }\r\n\r\n  /**\r\n  * @dev Total number of tokens in existence\r\n  */\r\n  function totalSupply() \r\n  public \r\n  view \r\n  returns (uint256) \r\n  {\r\n    return totalSupply_;\r\n  }\r\n\r\n  /**\r\n  * @dev Transfer token for a specified address\r\n  * @param _to The address to transfer to.\r\n  * @param _value The amount to be transferred.\r\n  */\r\n  function transfer(\r\n    address _to, \r\n    uint256 _value\r\n  ) \r\n  public \r\n  returns (bool) \r\n  {\r\n    _transfer(_to, _value);\r\n  }\r\n\r\n  function _transfer(\r\n    address _to, \r\n    uint256 _value\r\n  ) \r\n  internal\r\n  nonReentrant\r\n  returns (bool) \r\n  {\r\n    require(_to != address(0));\r\n    require(_value <= balances[msg.sender]);\r\n\r\n    balances[msg.sender] = balances[msg.sender].sub(_value);\r\n    balances[_to] = balances[_to].add(_value);\r\n    emit Transfer(msg.sender, _to, _value);\r\n    emit Transfer(msg.sender, msg.sender, _to, _value);\r\n    return true;\r\n  }\r\n\r\n  event Transfer(\r\n    address indexed _from, \r\n    address indexed _to, \r\n    uint256 value\r\n  );\r\n  event Transfer(\r\n    address indexed _spender,\r\n    address indexed _from,\r\n    address indexed _to,\r\n    uint256 _value\r\n  );\r\n\r\n  /**\r\n  * @dev Gets the balance of the specified address.\r\n  * @param _owner The address to query the the balance of.\r\n  * @return An uint256 representing the amount owned by the passed address.\r\n  */\r\n  function balanceOf(\r\n    address _owner\r\n  ) \r\n  public \r\n  view \r\n  returns (uint256) \r\n  {\r\n    return balances[_owner];\r\n  }\r\n\r\n  mapping(address => mapping (address => uint256)) internal allowed;\r\n\r\n\r\n  /**\r\n  * @dev Transfer tokens from one address to another\r\n  * @param _from address The address which you want to send tokens from\r\n  * @param _to address The address which you want to transfer to\r\n  * @param _value uint256 the amount of tokens to be transferred\r\n  */\r\n  function transferFrom(\r\n    address _from,\r\n    address _to,\r\n    uint256 _value\r\n  )\r\n  public\r\n  returns(bool)\r\n  {\r\n    _transferFrom(_from,_to,_value);\r\n  }\r\n\r\n  function _transferFrom(\r\n    address _from,\r\n    address _to,\r\n    uint256 _value\r\n  )\r\n  public\r\n  nonReentrant\r\n  returns(bool)\r\n  {\r\n    require(_to != address(0),\"Can't send tokens to the 0x0 address.\");\r\n    require(_value <= balances[_from],\"Token amount to send must be smaller than the balance you want to send from.\");\r\n    require(_value <= allowed[_from][msg.sender],\"Token amount to send must be smaller than that you're allowed to send from this address.\");\r\n\r\n    balances[_from] = balances[_from].sub(_value);\r\n    balances[_to] = balances[_to].add(_value);\r\n    allowed[_from][msg.sender] = allowed[_from][msg.sender].sub(_value);\r\n    emit Transfer(_from, _to, _value);\r\n    emit Transfer(msg.sender,_from, _to, _value);\r\n    return true;\r\n  }\r\n\r\n  /**\r\n  * @dev Approve the passed address to spend the specified amount of tokens on behalf of msg.sender.\r\n  * Beware that changing an allowance with this method brings the risk that someone may use both the old\r\n  * and the new allowance by unfortunate transaction ordering. One possible solution to mitigate this\r\n  * race condition is to first reduce the spender's allowance to 0 and set the desired value afterwards:\r\n  * https://github.com/ethereum/EIPs/issues/20#issuecomment-263524729\r\n  * @param _spender The address which will spend the funds.\r\n  * @param _value The amount of tokens to be spent.\r\n  */\r\n  function approve(\r\n    address _spender, \r\n    uint256 _currentValue,\r\n    uint256 _value\r\n  ) \r\n  public \r\n  returns(bool) \r\n  {\r\n    require(_currentValue == allowed[msg.sender][_spender]);\r\n    allowed[msg.sender][_spender] = _value;\r\n    emit Approval(msg.sender, _spender, _value);\r\n    emit Approval(msg.sender, _spender, _currentValue, _value);\r\n    return true;\r\n  }\r\n\r\n  event Approval(\r\n    address indexed _owner,\r\n    address indexed _spender,\r\n    uint256 value\r\n  );\r\n  event Approval(\r\n    address indexed _owner,\r\n    address indexed _spender,\r\n    uint256 _oldValue,\r\n    uint256 _value\r\n  );\r\n\r\n  /**\r\n  * @dev Function to check the amount of tokens that an owner allowed to a spender.\r\n  * @param _owner address The address which owns the funds.\r\n  * @param _spender address The address which will spend the funds.\r\n  * @return A uint256 specifying the amount of tokens still available for the spender.\r\n  */\r\n  function allowance(\r\n    address _owner,\r\n    address _spender\r\n  )\r\n  public\r\n  view\r\n  returns(uint256)\r\n  {\r\n    return allowed[_owner][_spender];\r\n  }\r\n\r\n  /**\r\n  * @dev Increase the amount of tokens that an owner allowed to a spender.\r\n  * approve should be called when allowed[_spender] == 0. To increment\r\n  * allowed value is better to use this function to avoid 2 calls (and wait until\r\n  * the first transaction is mined)\r\n  * From MonolithDAO Token.sol\r\n  * @param _spender The address which will spend the funds.\r\n  * @param _addedValue The amount of tokens to increase the allowance by.\r\n  */\r\n  function increaseApproval(\r\n    address _spender,\r\n    uint256 _addedValue\r\n  )\r\n  public\r\n  returns(bool)\r\n  {\r\n    allowed[msg.sender][_spender] = (\r\n    allowed[msg.sender][_spender].add(_addedValue));\r\n    emit Approval(msg.sender, _spender, allowed[msg.sender][_spender]);\r\n    return true;\r\n  }\r\n\r\n  /**\r\n  * @dev Decrease the amount of tokens that an owner allowed to a spender.\r\n  * approve should be called when allowed[_spender] == 0. To decrement\r\n  * allowed value is better to use this function to avoid 2 calls (and wait until\r\n  * the first transaction is mined)\r\n  * From MonolithDAO Token.sol\r\n  * @param _spender The address which will spend the funds.\r\n  * @param _subtractedValue The amount of tokens to decrease the allowance by.\r\n  */\r\n  function decreaseApproval(\r\n    address _spender,\r\n    uint256 _subtractedValue\r\n  )\r\n  public\r\n  returns(bool)\r\n  {\r\n    uint256 oldValue = allowed[msg.sender][_spender];\r\n    if (_subtractedValue > oldValue) {\r\n      allowed[msg.sender][_spender] = 0;\r\n    } else {\r\n      allowed[msg.sender][_spender] = oldValue.sub(_subtractedValue);\r\n    }\r\n    emit Approval(msg.sender, _spender, allowed[msg.sender][_spender]);\r\n    return true;\r\n  }\r\n\r\n  address public owner;\r\n\r\n  event OwnershipRenounced(\r\n    address indexed previousOwner\r\n  );\r\n  event OwnershipTransferred(\r\n    address indexed previousOwner,\r\n    address indexed newOwner\r\n  );\r\n\r\n  /**\r\n  * @dev Throws if called by any account other than the owner.\r\n  */\r\n  modifier onlyOwner() \r\n  {\r\n    require(msg.sender == owner);\r\n    _;\r\n  }\r\n\r\n  /**\r\n  * @dev Allows the current owner to relinquish control of the contract.\r\n  * @notice Renouncing to ownership will leave the contract without an owner.\r\n  * It will not be possible to call the functions with the `onlyOwner`\r\n  * modifier anymore.\r\n  */\r\n  function renounceOwnership() \r\n  public \r\n  onlyOwner \r\n  {\r\n    emit OwnershipRenounced(owner);\r\n    owner = address(0);\r\n  }\r\n\r\n  /**\r\n  * @dev Allows the current owner to transfer control of the contract to a newOwner.\r\n  * @param _newOwner The address to transfer ownership to.\r\n  */\r\n  function transferOwnership(\r\n    address _newOwner\r\n  ) \r\n  public \r\n  onlyOwner \r\n  {\r\n    _transferOwnership(_newOwner);\r\n  }\r\n\r\n  /**\r\n  * @dev Transfers control of the contract to a newOwner.\r\n  * @param _newOwner The address to transfer ownership to.\r\n  */\r\n  function _transferOwnership(\r\n    address _newOwner\r\n  ) \r\n  internal \r\n  {\r\n    require(_newOwner != address(0));\r\n    emit OwnershipTransferred(owner, _newOwner);\r\n    owner = _newOwner;\r\n  }\r\n\r\n  event Mint(address indexed to, uint256 amount);\r\n  event MintFinished();\r\n\r\n  bool public mintingFinished = false;\r\n\r\n\r\n  modifier canMint() \r\n  {\r\n    require(!mintingFinished);\r\n    _;\r\n  }\r\n\r\n  modifier hasMintPermission() \r\n  {\r\n    require(msg.sender == owner);\r\n    _;\r\n  }\r\n\r\n  /**\r\n  * @dev Function to mint tokens\r\n  * @param _to The address that will receive the minted tokens.\r\n  * @param _amount The amount of tokens to mint.\r\n  * @return A boolean that indicates if the operation was successful.\r\n  */\r\n  function mint(\r\n    address _to,\r\n    uint256 _amount\r\n  )\r\n  public\r\n  hasMintPermission canMint\r\n  returns (bool)\r\n  {\r\n    totalSupply_ = totalSupply_.add(_amount);\r\n    balances[_to] = balances[_to].add(_amount);\r\n    emit Mint(_to, _amount);\r\n    emit Transfer(address(0), _to, _amount);\r\n    return true;\r\n  }\r\n\r\n  /**\r\n  * @dev Function to stop minting new tokens.\r\n  * @return True if the operation was successful.\r\n  */\r\n  function finishMinting() \r\n  public  \r\n  onlyOwner canMint\r\n  returns (bool) \r\n  {\r\n    mintingFinished = true;\r\n    emit MintFinished();\r\n    return true;\r\n  }\r\n\r\n  event Burn(address indexed burner, uint256 value);\r\n\r\n  /**\r\n  * @dev Burns a specific amount of tokens.\r\n  * @param _value The amount of token to be burned.\r\n  */\r\n  function burn(\r\n    uint256 _value\r\n  ) \r\n  public \r\n  {\r\n    _burn(msg.sender, _value);\r\n  }\r\n\r\n  function _burn(\r\n    address _who, \r\n    uint256 _value\r\n  ) \r\n  internal \r\n  {\r\n    require(_value <= balances[_who]);\r\n    // no need to require value <= totalSupply, since that would imply the\r\n    // sender's balance is greater than the totalSupply, which *should* be an assertion failure\r\n\r\n    balances[_who] = balances[_who].sub(_value);\r\n    totalSupply_ = totalSupply_.sub(_value);\r\n    emit Burn(_who, _value);\r\n    emit Transfer(_who, address(0), _value);\r\n  }\r\n}\r\n\r\n  /**\r\n  * @title Math\r\n  * @dev Assorted math operations\r\n  */\r\n  /**\r\n  * @title SafeMath\r\n  * @dev Math operations with safety checks that throw on error\r\n  */\r\nlibrary SafeMath {\r\n\r\n  /**\r\n  * @dev Multiplies two numbers, throws on overflow.\r\n  */\r\n  function mul(\r\n    uint256 a, \r\n    uint256 b\r\n  ) \r\n  internal \r\n  pure \r\n  returns(uint256 c) \r\n  {\r\n    // Gas optimization: this is cheaper than asserting 'a' not being zero, but the\r\n    // benefit is lost if 'b' is also tested.\r\n    // See: https://github.com/OpenZeppelin/openzeppelin-solidity/pull/522\r\n    if (a == 0) {\r\n      return 0;\r\n    }\r\n\r\n    c = a * b;\r\n    require(c / a == b,\"Multiplication overflows uint256.\");\r\n    return c;\r\n  }\r\n\r\n  /**\r\n  * @dev Integer division of two numbers, truncating the quotient.\r\n  */\r\n  function div(\r\n    uint256 a,\r\n    uint256 b\r\n  ) \r\n  internal \r\n  pure \r\n  returns(uint256) \r\n  {\r\n    // assert(b > 0); \r\n    // Solidity automatically throws when dividing by 0\r\n    // uint256 c = a / b;\r\n    // assert(a == b * c + a % b); // There is no case in which this doesn't hold\r\n    return a / b;\r\n  }\r\n\r\n  /**\r\n  * @dev Subtracts two numbers, throws on overflow (i.e. if subtrahend is greater than minuend).\r\n  */\r\n  function sub(\r\n    uint256 minuend, \r\n    uint256 subtrahend\r\n  ) \r\n  internal \r\n  pure \r\n  returns(uint256) \r\n  {\r\n    require(minuend >= subtrahend,\"Subtrahend is greater than minuend.\");\r\n    return minuend - subtrahend;\r\n  }\r\n\r\n  /**\r\n  * @dev Adds two numbers, throws on overflow.\r\n  */\r\n  function add(\r\n    uint256 a, \r\n    uint256 b\r\n  ) \r\n  internal \r\n  pure \r\n  returns(uint256 c) \r\n  {\r\n    c = a + b;\r\n    require(c >= a,\"Addition overflows uint256.\");\r\n    return c;\r\n  }\r\n}",
  "sourcePath": "C:\\Users\\carlo\\Desktop\\Pedro's List\\contracts\\Pedro_ERC20Token.sol",
  "compiler": {
    "name": "solc",
    "version": "0.4.24+commit.e67f0147.Emscripten.clang"
  },
  "schemaVersion": "2.0.1",
  "updatedAt": "2019-02-01T23:21:16.543Z"
}