{
  "contractName": "RewardsPayer",
  "abi": [
    {
      "constant": true,
      "inputs": [],
      "name": "currentFiatContract",
      "outputs": [
        {
          "name": "",
          "type": "address"
        }
      ],
      "payable": false,
      "stateMutability": "view",
      "type": "function"
    },
    {
      "constant": true,
      "inputs": [],
      "name": "currentToken",
      "outputs": [
        {
          "name": "",
          "type": "address"
        }
      ],
      "payable": false,
      "stateMutability": "view",
      "type": "function"
    },
    {
      "constant": true,
      "inputs": [],
      "name": "USDCent_inETHWei",
      "outputs": [
        {
          "name": "",
          "type": "uint256"
        }
      ],
      "payable": false,
      "stateMutability": "view",
      "type": "function"
    },
    {
      "inputs": [
        {
          "name": "pedro_ERC20TokenAddress",
          "type": "address"
        },
        {
          "name": "currentFiatContractAddress",
          "type": "address"
        }
      ],
      "payable": true,
      "stateMutability": "payable",
      "type": "constructor"
    },
    {
      "constant": false,
      "inputs": [
        {
          "name": "Pedro_ERC20TokenAddress",
          "type": "address"
        }
      ],
      "name": "setCurrentTokenAddress",
      "outputs": [],
      "payable": false,
      "stateMutability": "nonpayable",
      "type": "function"
    },
    {
      "constant": false,
      "inputs": [],
      "name": "update_USDCent_inETHWei",
      "outputs": [
        {
          "name": "",
          "type": "uint256"
        }
      ],
      "payable": false,
      "stateMutability": "nonpayable",
      "type": "function"
    },
    {
      "constant": false,
      "inputs": [
        {
          "name": "service_price",
          "type": "uint256"
        },
        {
          "name": "consumer",
          "type": "address"
        },
        {
          "name": "provider",
          "type": "address"
        }
      ],
      "name": "pay",
      "outputs": [],
      "payable": true,
      "stateMutability": "payable",
      "type": "function"
    },
    {
      "constant": false,
      "inputs": [
        {
          "name": "service_price",
          "type": "uint256"
        }
      ],
      "name": "getRewardAmount",
      "outputs": [
        {
          "name": "rewardAmount",
          "type": "uint256"
        }
      ],
      "payable": false,
      "stateMutability": "nonpayable",
      "type": "function"
    },
    {
      "constant": false,
      "inputs": [],
      "name": "getTokenPrice",
      "outputs": [
        {
          "name": "tokenPrice_inETHWei",
          "type": "uint256"
        }
      ],
      "payable": false,
      "stateMutability": "nonpayable",
      "type": "function"
    }
  ],
  "bytecode": "0x60806040818152806106a483398101604052805160209091015160018054600160a060020a03938416600160a060020a031991821617918290556000805482169285169290921790915560038054939092169281168317909155600280549091169091179055610630806100746000396000f30060806040526004361061008d5763ffffffff7c01000000000000000000000000000000000000000000000000000000006000350416630450cb768114610092578063048c6776146100c25780634b94f50e14610100578063836c081d14610127578063c84993af1461013c578063cc71a22a14610154578063da5be4d11461017e578063ea29bc0d14610193575b600080fd5b34801561009e57600080fd5b506100c073ffffffffffffffffffffffffffffffffffffffff600435166101a8565b005b3480156100ce57600080fd5b506100d76101f1565b6040805173ffffffffffffffffffffffffffffffffffffffff9092168252519081900360200190f35b34801561010c57600080fd5b5061011561020d565b60408051918252519081900360200190f35b34801561013357600080fd5b506100d761021c565b34801561014857600080fd5b50610115600435610238565b6100c060043573ffffffffffffffffffffffffffffffffffffffff60243581169060443516610249565b34801561018a57600080fd5b506101156102b1565b34801561019f57600080fd5b506101156102b7565b6001805473ffffffffffffffffffffffffffffffffffffffff1990811673ffffffffffffffffffffffffffffffffffffffff938416179182905560008054929093169116179055565b60035473ffffffffffffffffffffffffffffffffffffffff1681565b6000610217610362565b905090565b60015473ffffffffffffffffffffffffffffffffffffffff1681565b60006102438261037d565b92915050565b60006102548461037d565b6000549091506102819073ffffffffffffffffffffffffffffffffffffffff16848363ffffffff6103d416565b6000546102ab9073ffffffffffffffffffffffffffffffffffffffff16838363ffffffff6103d416565b50505050565b60045481565b600254604080517f0c560c640000000000000000000000000000000000000000000000000000000081526000600482018190529151919273ffffffffffffffffffffffffffffffffffffffff1691630c560c649160248082019260209290919082900301818787803b15801561032c57600080fd5b505af1158015610340573d6000803e3d6000fd5b505050506040513d602081101561035657600080fd5b50516004819055905090565b6000610217602d6103716102b7565b9063ffffffff61053b16565b600080600080610390602d6103716102b7565b92506103a385600a63ffffffff6105ef16565b6004549092506103b9908363ffffffff61053b16565b90506103cb818463ffffffff6105ef16565b95945050505050565b8273ffffffffffffffffffffffffffffffffffffffff1663a9059cbb83836040518363ffffffff167c0100000000000000000000000000000000000000000000000000000000028152600401808373ffffffffffffffffffffffffffffffffffffffff1673ffffffffffffffffffffffffffffffffffffffff16815260200182815260200192505050602060405180830381600087803b15801561047757600080fd5b505af115801561048b573d6000803e3d6000fd5b505050506040513d60208110156104a157600080fd5b5051151561053657604080517f08c379a000000000000000000000000000000000000000000000000000000000815260206004820152602c60248201527f436f756c64206e6f7420736166656c79207472616e736665722066726f6d207460448201527f68617420616464726573732e0000000000000000000000000000000000000000606482015290519081900360840190fd5b505050565b600082151561054c57506000610243565b5081810281838281151561055c57fe5b041461024357604080517f08c379a000000000000000000000000000000000000000000000000000000000815260206004820152602160248201527f4d756c7469706c69636174696f6e206f766572666c6f77732075696e7432353660448201527f2e00000000000000000000000000000000000000000000000000000000000000606482015290519081900360840190fd5b600081838115156105fc57fe5b0493925050505600a165627a7a72305820dd567a98395b3b855ff39c72e6ed3f6b0c5ff8235191891e94e564ed5508e4da0029",
  "source": "// solium-disable linebreak-style\r\npragma solidity ^0.4.15;\r\n\r\nimport \"./Pedro_ERC20Token.sol\";\r\n\r\ncontract FiatContract {\r\n  function ETH(uint _id) external view returns (uint256);\r\n  function USD(uint _id) external view returns (uint256);\r\n  function EUR(uint _id) external view returns (uint256);\r\n  function GBP(uint _id) external view returns (uint256);\r\n  function updatedAt(uint _id) external view returns (uint);\r\n}\r\n\r\ncontract RewardsPayer {\r\n  \r\n  Pedro_ERC20Token pedro_ERC20Token;\r\n  address public currentToken;\r\n  \r\n  FiatContract fiatContract;\r\n  address public currentFiatContract;\r\n\r\n  uint256 public USDCent_inETHWei;\r\n\r\n  constructor(\r\n    address pedro_ERC20TokenAddress,\r\n    address currentFiatContractAddress\r\n  )\r\n  public \r\n  payable\r\n  {\r\n    currentToken = pedro_ERC20TokenAddress;\r\n    pedro_ERC20Token = Pedro_ERC20Token(currentToken);\r\n    \r\n    currentFiatContract = currentFiatContractAddress;\r\n    fiatContract = FiatContract(currentFiatContractAddress);\r\n  }\r\n\r\n\r\n\r\n  function setCurrentTokenAddress(address Pedro_ERC20TokenAddress) \r\n  external \r\n  {\r\n    currentToken = Pedro_ERC20TokenAddress;\r\n    pedro_ERC20Token = Pedro_ERC20Token(currentToken);\r\n  }\r\n\r\n\r\n\r\n  function update_USDCent_inETHWei()\r\n  public\r\n  returns(\r\n    uint256\r\n  )\r\n  {\r\n    USDCent_inETHWei = fiatContract.USD(0);\r\n    return USDCent_inETHWei;\r\n  }\r\n\r\n\r\n  using SafeMath for uint256;\r\n  using SafeERC20 for Pedro_ERC20Token;\r\n\r\n  function pay(\r\n/*     uint32 review_id,\r\n    uint32 provider_id,\r\n    bool service_done,\r\n    bool hire_again,\r\n    uint8 overall_rating, */\r\n    uint service_price, /** @param service_price Price in USD cents. 1 USD = 100 USD cents */\r\n/*     uint8 price_satisfaction,\r\n    uint8 responsiveness,\r\n    uint8 professionalism,\r\n    uint8 satisfaction */\r\n    address consumer,\r\n    address provider\r\n  )\r\n  public\r\n  payable\r\n  {\r\n    uint256 tokenAmount = _rewardAmount(service_price);\r\n    pedro_ERC20Token.safeTransfer(consumer, tokenAmount);\r\n    pedro_ERC20Token.safeTransfer(provider, tokenAmount);\r\n  }\r\n\r\n  \r\n\r\n  function getRewardAmount(uint service_price)\r\n  public\r\n  returns(\r\n    uint256 rewardAmount\r\n  )\r\n  {\r\n    rewardAmount = _rewardAmount(service_price);\r\n  }\r\n\r\n\r\n\r\n  function _rewardAmount(uint service_price) \r\n  internal\r\n  returns(\r\n    uint256 rewardAmount\r\n  )\r\n  {    \r\n    uint256 tokenPrice_inETHWei = update_USDCent_inETHWei().mul(45);\r\n\r\n    uint256 fractionOfPrice_inUSDCents = service_price.div(10);\r\n    uint256 fractionOfPrice_inETHWei = USDCent_inETHWei.mul(fractionOfPrice_inUSDCents);\r\n\r\n    rewardAmount = fractionOfPrice_inETHWei.div(tokenPrice_inETHWei);\r\n  }\r\n\r\n\r\n\r\n  function getTokenPrice() \r\n  public\r\n  returns(\r\n    uint256 tokenPrice_inETHWei\r\n  )\r\n  {\r\n    tokenPrice_inETHWei = _tokenPrice();\r\n  }\r\n\r\n\r\n\r\n  function _tokenPrice() \r\n  internal\r\n  returns(\r\n    uint256 tokenPrice_inETHWei\r\n  )\r\n  {\r\n    tokenPrice_inETHWei = update_USDCent_inETHWei().mul(45);\r\n  }\r\n\r\n\r\n\r\n  function _fractionOfPrice(uint service_price) \r\n  internal\r\n  returns(\r\n    uint256 fractionOfPrice_inETHWei\r\n  )\r\n  {\r\n    uint256 fractionOfPrice_inUSDCents = service_price.div(10);\r\n    fractionOfPrice_inETHWei = update_USDCent_inETHWei().mul(fractionOfPrice_inUSDCents);\r\n  }\r\n\r\n\r\n\r\n  function fractionOfPrice(uint service_price) \r\n  internal\r\n  returns(\r\n    uint256 fractionOfPrice_inETHWei\r\n  )\r\n  {\r\n    fractionOfPrice_inETHWei = _fractionOfPrice(service_price);\r\n  }\r\n}\r\n\r\n\r\n\r\n\r\n/**\r\n * @title SafeERC20\r\n * @dev Wrappers around ERC20 operations that throw on failure.\r\n * To use this library you can add a `using SafeERC20 for ERC20;` statement to your contract,\r\n * which allows you to call the safe operations as `token.safeTransfer(...)`, etc.\r\n */\r\nlibrary SafeERC20 {\r\n  function safeTransfer(\r\n    Pedro_ERC20Token _token,\r\n    address _to,\r\n    uint256 _value\r\n  )\r\n    internal\r\n  {\r\n    require(_token.transfer(_to, _value),\"Could not safely transfer from that address.\");\r\n  }\r\n\r\n  function safeTransferFrom(\r\n    Pedro_ERC20Token _token,\r\n    address _from,\r\n    address _to,\r\n    uint256 _value\r\n  )\r\n    internal\r\n  {\r\n    require(_token.transferFrom(_from, _to, _value),\"Could not safely transfer from that address.\");\r\n  }\r\n\r\n  function safeApprove(\r\n    Pedro_ERC20Token _token,\r\n    address _spender,\r\n    uint256 _currentValue,\r\n    uint256 _value\r\n  )\r\n    internal\r\n  {\r\n    require(_token.approve(_spender, _currentValue, _value),\"Could not safely approve, check current approved value.\");\r\n  }\r\n}",
  "sourcePath": "C:\\Users\\carlo\\Desktop\\Pedro's List\\contracts\\RewardsPayer.sol",
  "compiler": {
    "name": "solc",
    "version": "0.4.24+commit.e67f0147.Emscripten.clang"
  },
  "schemaVersion": "2.0.1",
  "updatedAt": "2019-02-04T20:13:42.669Z"
}