{
  "contractName": "ReviewsController",
  "abi": [
    {
      "inputs": [
        {
          "name": "pedro_ERC20TokenAddress",
          "type": "address"
        },
        {
          "name": "rewardCalculatorAddress",
          "type": "address"
        },
        {
          "name": "priceCalculatorAddress",
          "type": "address"
        }
      ],
      "payable": false,
      "stateMutability": "nonpayable",
      "type": "constructor"
    },
    {
      "anonymous": false,
      "inputs": [
        {
          "indexed": true,
          "name": "reviewId",
          "type": "uint32"
        },
        {
          "indexed": true,
          "name": "callTimestamp",
          "type": "uint64"
        },
        {
          "indexed": true,
          "name": "serviceIdArray",
          "type": "uint32[]"
        },
        {
          "indexed": false,
          "name": "requesterEthAddress",
          "type": "address"
        }
      ],
      "name": "ServiceRequested",
      "type": "event"
    },
    {
      "anonymous": false,
      "inputs": [
        {
          "indexed": true,
          "name": "reviewId",
          "type": "uint32"
        },
        {
          "indexed": true,
          "name": "offerTimestamp",
          "type": "uint64"
        },
        {
          "indexed": true,
          "name": "price",
          "type": "uint16"
        },
        {
          "indexed": false,
          "name": "offererEthAddress",
          "type": "address"
        }
      ],
      "name": "ServiceOffered",
      "type": "event"
    },
    {
      "anonymous": false,
      "inputs": [
        {
          "indexed": true,
          "name": "reviewId",
          "type": "uint32"
        },
        {
          "indexed": true,
          "name": "acceptanceTimestamp",
          "type": "uint64"
        },
        {
          "indexed": false,
          "name": "requesterEthAddress",
          "type": "address"
        },
        {
          "indexed": false,
          "name": "offererEthAddress",
          "type": "address"
        }
      ],
      "name": "OfferAccepted",
      "type": "event"
    },
    {
      "anonymous": false,
      "inputs": [
        {
          "indexed": true,
          "name": "reviewId",
          "type": "uint32"
        },
        {
          "indexed": true,
          "name": "claimTimestamp",
          "type": "uint64"
        },
        {
          "indexed": false,
          "name": "requesterEthAddress",
          "type": "address"
        },
        {
          "indexed": false,
          "name": "offererEthAddress",
          "type": "address"
        }
      ],
      "name": "CompletionClaimed",
      "type": "event"
    },
    {
      "anonymous": false,
      "inputs": [
        {
          "indexed": true,
          "name": "reviewId",
          "type": "uint32"
        },
        {
          "indexed": true,
          "name": "approvalTimestamp",
          "type": "uint64"
        },
        {
          "indexed": false,
          "name": "requesterEthAddress",
          "type": "address"
        },
        {
          "indexed": false,
          "name": "offererEthAddress",
          "type": "address"
        }
      ],
      "name": "CompletionApproved",
      "type": "event"
    },
    {
      "anonymous": false,
      "inputs": [
        {
          "indexed": true,
          "name": "reviewId",
          "type": "uint32"
        },
        {
          "indexed": true,
          "name": "rejectionTimestamp",
          "type": "uint64"
        },
        {
          "indexed": false,
          "name": "requesterEthAddress",
          "type": "address"
        },
        {
          "indexed": false,
          "name": "offererEthAddress",
          "type": "address"
        }
      ],
      "name": "CompletionRejected",
      "type": "event"
    },
    {
      "constant": false,
      "inputs": [
        {
          "name": "RewardCalculatorAddress",
          "type": "address"
        }
      ],
      "name": "setCurrentRewardCalculatorAddress",
      "outputs": [],
      "payable": false,
      "stateMutability": "nonpayable",
      "type": "function"
    },
    {
      "constant": false,
      "inputs": [
        {
          "name": "Pedro_ERC20TokenAddress",
          "type": "address"
        }
      ],
      "name": "setCurrentPedro_ERC20TokenAddress",
      "outputs": [],
      "payable": false,
      "stateMutability": "nonpayable",
      "type": "function"
    },
    {
      "constant": false,
      "inputs": [
        {
          "name": "PriceCalculatorAddress",
          "type": "address"
        }
      ],
      "name": "setCurrentPriceCalculatorAddress",
      "outputs": [],
      "payable": false,
      "stateMutability": "nonpayable",
      "type": "function"
    },
    {
      "constant": false,
      "inputs": [
        {
          "name": "reviewId",
          "type": "uint32"
        },
        {
          "name": "requestTimestamp",
          "type": "uint64"
        },
        {
          "name": "serviceIdArray",
          "type": "uint32[]"
        }
      ],
      "name": "requestServices",
      "outputs": [
        {
          "name": "",
          "type": "bool"
        }
      ],
      "payable": false,
      "stateMutability": "nonpayable",
      "type": "function"
    },
    {
      "constant": false,
      "inputs": [
        {
          "name": "reviewId",
          "type": "uint32"
        },
        {
          "name": "offerTimestamp",
          "type": "uint64"
        },
        {
          "name": "providersPrice",
          "type": "uint16"
        }
      ],
      "name": "offerServices",
      "outputs": [
        {
          "name": "",
          "type": "bool"
        }
      ],
      "payable": false,
      "stateMutability": "nonpayable",
      "type": "function"
    },
    {
      "constant": false,
      "inputs": [
        {
          "name": "reviewId",
          "type": "uint32"
        },
        {
          "name": "acceptanceTimestamp",
          "type": "uint64"
        },
        {
          "name": "offererEthAddress",
          "type": "address"
        }
      ],
      "name": "acceptOffer",
      "outputs": [
        {
          "name": "",
          "type": "bool"
        }
      ],
      "payable": false,
      "stateMutability": "nonpayable",
      "type": "function"
    },
    {
      "constant": false,
      "inputs": [
        {
          "name": "reviewId",
          "type": "uint32"
        },
        {
          "name": "claimTimestamp",
          "type": "uint64"
        }
      ],
      "name": "claimCompletion",
      "outputs": [
        {
          "name": "",
          "type": "bool"
        }
      ],
      "payable": false,
      "stateMutability": "nonpayable",
      "type": "function"
    },
    {
      "constant": false,
      "inputs": [
        {
          "name": "reviewId",
          "type": "uint32"
        },
        {
          "name": "approvalTimestamp",
          "type": "uint64"
        },
        {
          "name": "rank",
          "type": "uint8"
        }
      ],
      "name": "approveCompletion",
      "outputs": [
        {
          "name": "rewardAmount",
          "type": "uint256"
        }
      ],
      "payable": false,
      "stateMutability": "nonpayable",
      "type": "function"
    },
    {
      "constant": false,
      "inputs": [
        {
          "name": "reviewId",
          "type": "uint32"
        },
        {
          "name": "rejectionTimestamp",
          "type": "uint64"
        }
      ],
      "name": "rejectCompletion",
      "outputs": [
        {
          "name": "",
          "type": "bool"
        }
      ],
      "payable": false,
      "stateMutability": "nonpayable",
      "type": "function"
    }
  ],
  "bytecode": "0x608060405234801561001057600080fd5b50604051606080610cae83398101604090815281516020830151919092015160018054600160a060020a03948516600160a060020a031991821617918290556000805482169286169290921790915560038054938516938216939093179283905560028054821693851693909317909255600580549184169183169190911790819055600480549092169216919091179055610bfd806100b16000396000f3006080604052600436106100985763ffffffff7c01000000000000000000000000000000000000000000000000000000006000350416633a30951e811461009d5780633ee4aa54146100e0578063613d0ead146101105780637800b4681461013e57806392abc2621461018a5780639f2ae1c1146101b5578063b644607e146101e7578063b7fe042a14610212578063f6395b7614610240575b600080fd5b3480156100a957600080fd5b506100ce63ffffffff6004351667ffffffffffffffff6024351660ff60443516610284565b60408051918252519081900360200190f35b3480156100ec57600080fd5b5061010e73ffffffffffffffffffffffffffffffffffffffff6004351661037b565b005b34801561011c57600080fd5b5061010e73ffffffffffffffffffffffffffffffffffffffff600435166103c4565b34801561014a57600080fd5b506101766004803563ffffffff16906024803567ffffffffffffffff169160443591820191013561040d565b604080519115158252519081900360200190f35b34801561019657600080fd5b5061017663ffffffff6004351667ffffffffffffffff60243516610515565b3480156101c157600080fd5b5061017663ffffffff6004351667ffffffffffffffff6024351661ffff604435166105d8565b3480156101f357600080fd5b5061017663ffffffff6004351667ffffffffffffffff6024351661080c565b34801561021e57600080fd5b5061010e73ffffffffffffffffffffffffffffffffffffffff600435166108d5565b34801561024c57600080fd5b5061017663ffffffff6004351667ffffffffffffffff6024351673ffffffffffffffffffffffffffffffffffffffff6044351661091e565b63ffffffff83166000908152600660205260408120548190600190869060ff16151582146102b157600080fd5b63ffffffff87166000908152600d602090815260408083205460025482517fa8df4d7500000000000000000000000000000000000000000000000000000000815260ff8b16600482015260248101839052925191975073ffffffffffffffffffffffffffffffffffffffff169363a8df4d7593604480850194919392918390030190829087803b15801561034457600080fd5b505af1158015610358573d6000803e3d6000fd5b505050506040513d602081101561036e57600080fd5b5051979650505050505050565b6005805473ffffffffffffffffffffffffffffffffffffffff1990811673ffffffffffffffffffffffffffffffffffffffff938416179182905560048054929093169116179055565b6003805473ffffffffffffffffffffffffffffffffffffffff1990811673ffffffffffffffffffffffffffffffffffffffff938416179182905560028054929093169116179055565b63ffffffff84166000908152600660205260408120548190869060ff161561043457600080fd5b63ffffffff87166000908152600660209081526040808320805460ff1916600117905560089091529020610469908686610af8565b5063ffffffff8716600090815260076020908152604091829020805473ffffffffffffffffffffffffffffffffffffffff191633179055905186918691908190849084028082843760408051919093018190038120338252925192955067ffffffffffffffff8c16945063ffffffff8d1693507f25714dae27812e4571d5ca9cc0347b443436a3a1d3d3c18b1d810e0cfd7f62b592908190036020019150a45060019695505050505050565b63ffffffff8216600090815260066020526040812054600190849060ff161515821461054057600080fd5b63ffffffff851660008181526007602090815260409182902054825173ffffffffffffffffffffffffffffffffffffffff90911681523391810191909152815167ffffffffffffffff881693927fb57c101a773db34f6ebb963dfb18f94fdae8cbc273d3c42fbbacfacc585401d5928290030190a35050505063ffffffff166000908152600c60205260408120805460ff1916905590565b63ffffffff83166000908152600660205260408120548190600190869060ff161515821461060557600080fd5b60048054604080517f76a42c2e00000000000000000000000000000000000000000000000000000000815263ffffffff8b169381019390935267ffffffffffffffff8916602484015261ffff881660448401525173ffffffffffffffffffffffffffffffffffffffff909116916376a42c2e9160648083019260209291908290030181600087803b15801561069957600080fd5b505af11580156106ad573d6000803e3d6000fd5b505050506040513d60208110156106c357600080fd5b505163ffffffff88166000818152600a60209081526040808320815160608101835267ffffffffffffffff8d811680835261ffff808a1684880181815233868901818152885460018101808b55998d528b8d209851980180549351915167ffffffffffffffff19909416989097169790971769ffff00000000000000001916680100000000000000009790941696909602929092177fffff0000000000000000000000000000000000000000ffffffffffffffffffff166a010000000000000000000073ffffffffffffffffffffffffffffffffffffffff90931692909202919091179092558787526009865295849020805460ff191660ff9094169390931790925582519081529151959850949293927f69a86474c8f8b094b43132d9eb8e9dad5f9fedacdd1d858591945f9f39f04838929181900390910190a45060019695505050505050565b63ffffffff8216600090815260066020526040812054600190849060ff161515821461083757600080fd5b63ffffffff851660008181526007602090815260409182902054825173ffffffffffffffffffffffffffffffffffffffff90911681523391810191909152815167ffffffffffffffff881693927f10558c218e21bd97ccfb8c05a6da15e8ee81720920241a20cd0ad3cd631f3e48928290030190a35050505063ffffffff166000908152600c60205260409020805460ff1916600190811790915590565b6001805473ffffffffffffffffffffffffffffffffffffffff1990811673ffffffffffffffffffffffffffffffffffffffff938416179182905560008054929093169116179055565b63ffffffff8316600090815260066020526040812054819081908190600190889060ff161515821461094f57600080fd5b63ffffffff891660009081526009602052604081205460ff16955093505b8460ff168460ff161015610ae75763ffffffff89166000908152600a60205260409020805460ff861690811061099f57fe5b6000918252602090912001805490935073ffffffffffffffffffffffffffffffffffffffff8881166a0100000000000000000000909204161415610adc5763ffffffff89166000818152600b60209081526040918290208654815467ffffffffffffffff191667ffffffffffffffff91821617808355885461ffff6801000000000000000091829004160269ffff00000000000000001990911617808355885473ffffffffffffffffffffffffffffffffffffffff6a01000000000000000000009182900481169091027fffff0000000000000000000000000000000000000000ffffffffffffffffffff909216919091179092558351338152918c16928201929092528251918c1693927f4d59ffd64daaf4c5e7d11d6b0dccc69e7b5b746404ca307e23cdb8c814c3fa1192918290030190a360019550610aec565b60019093019261096d565b600095505b50505050509392505050565b82805482825590600052602060002090600701600890048101928215610b9d5791602002820160005b83821115610b6b57833563ffffffff1683826101000a81548163ffffffff021916908363ffffffff1602179055509260200192600401602081600301049283019260010302610b21565b8015610b9b5782816101000a81549063ffffffff0219169055600401602081600301049283019260010302610b6b565b505b50610ba9929150610bad565b5090565b610bce91905b80821115610ba957805463ffffffff19168155600101610bb3565b905600a165627a7a723058201ee97faaa21df4a8f0ee2a10afea7b3687a436989728749bf05831f232354a660029",
  "source": "// solium-disable linebreak-style\r\npragma solidity ^0.4.23;\r\n\r\nimport \"./IServiceStateController.sol\";\r\nimport \"./RewardCalculator.sol\";\r\nimport \"./Pedro_ERC20Token.sol\";\r\nimport \"./PriceCalculator.sol\";\r\n\r\ncontract ReviewsController is IServiceStateController {\r\n    \r\n    Pedro_ERC20Token pedro_ERC20Token;\r\n    address currentPedro_ERC20Token;\r\n\r\n    RewardCalculator rewardCalculator;\r\n    address currentRewardCalculator;\r\n\r\n    PriceCalculator priceCalculator;\r\n    address currentPriceCalculator;\r\n    \r\n    constructor(\r\n        address pedro_ERC20TokenAddress,\r\n        address rewardCalculatorAddress,\r\n        address priceCalculatorAddress\r\n    ) \r\n    public {\r\n        currentPedro_ERC20Token = pedro_ERC20TokenAddress;\r\n        pedro_ERC20Token = Pedro_ERC20Token(currentPedro_ERC20Token);\r\n\r\n        currentRewardCalculator = rewardCalculatorAddress;\r\n        rewardCalculator = RewardCalculator(currentRewardCalculator);\r\n\r\n        currentPriceCalculator = priceCalculatorAddress;\r\n        priceCalculator = PriceCalculator(currentPriceCalculator);\r\n    }\r\n\r\n    function setCurrentRewardCalculatorAddress(address RewardCalculatorAddress) \r\n    external {\r\n        currentRewardCalculator = RewardCalculatorAddress;\r\n        rewardCalculator = RewardCalculator(currentRewardCalculator);\r\n    }\r\n\r\n    function setCurrentPedro_ERC20TokenAddress(address Pedro_ERC20TokenAddress) \r\n    external {\r\n        currentPedro_ERC20Token = Pedro_ERC20TokenAddress;\r\n        pedro_ERC20Token = Pedro_ERC20Token(currentPedro_ERC20Token);\r\n    }\r\n\r\n    function setCurrentPriceCalculatorAddress(address PriceCalculatorAddress) \r\n    external {\r\n        currentPriceCalculator = PriceCalculatorAddress;\r\n        priceCalculator = PriceCalculator(currentPriceCalculator);\r\n    }\r\n\r\n    function requestServices(uint32 reviewId, uint64 requestTimestamp, uint32[] serviceIdArray)  \r\n    external validate_reviewId(false, reviewId) returns(bool) {\r\n        is_reviewId_active[reviewId] = true;\r\n        get_serviceIdArray_from_reviewId[reviewId] = serviceIdArray;\r\n        get_requesterEthAddress_from_reviewId[reviewId] = msg.sender;\r\n        emit ServiceRequested(reviewId, requestTimestamp, serviceIdArray, msg.sender);\r\n        return true;\r\n    }\r\n\r\n    modifier validate_reviewId(bool shouldBe, uint32 reviewId) {\r\n        require(is_reviewId_active[reviewId] == shouldBe);\r\n        _;\r\n    }\r\n    mapping(uint32 => bool) is_reviewId_active;\r\n    mapping(uint32 => address) get_requesterEthAddress_from_reviewId;\r\n    mapping(uint32 => uint32[]) get_serviceIdArray_from_reviewId;\r\n\r\n    function offerServices(uint32 reviewId, uint64 offerTimestamp, uint16 providersPrice) \r\n    external validate_reviewId(true, reviewId) returns(bool) {\r\n        uint16 providersPricePlusFee = priceCalculator.evaluate(\r\n            reviewId, offerTimestamp, providersPrice\r\n        );\r\n        get_offerTimestampCount_from_reviewId[reviewId] = uint8(\r\n            get_TimestampsAndPricesForServices_from_reviewId[reviewId].push(\r\n                TimestampAndPriceForServices(\r\n                    offerTimestamp, \r\n                    providersPricePlusFee,\r\n                    msg.sender\r\n                )\r\n            )\r\n        );\r\n        emit ServiceOffered(reviewId, offerTimestamp, providersPricePlusFee, msg.sender);\r\n        return true;\r\n    }\r\n\r\n    mapping(uint32 => uint8) get_offerTimestampCount_from_reviewId;\r\n    mapping(uint32 => TimestampAndPriceForServices[]) get_TimestampsAndPricesForServices_from_reviewId;\r\n    struct TimestampAndPriceForServices {\r\n        uint64 offerTimestamp;\r\n        uint16 finalPrice;\r\n        address offererEthAddress;\r\n    }\r\n\r\n    function acceptOffer(uint32 reviewId, uint64 acceptanceTimestamp, address offererEthAddress)\r\n    external validate_reviewId(true, reviewId) returns(bool) {\r\n        uint8 offerTimestampCount = get_offerTimestampCount_from_reviewId[reviewId];\r\n        for(uint8 i = 0; i < offerTimestampCount; i++) {\r\n            TimestampAndPriceForServices \r\n            timestampAndPriceForServices = get_TimestampsAndPricesForServices_from_reviewId[reviewId][i];\r\n            if(timestampAndPriceForServices.offererEthAddress == offererEthAddress) {\r\n                get_selectedTimestampAndPriceForServices_from_reviewId[reviewId] = timestampAndPriceForServices;\r\n                emit OfferAccepted(reviewId, acceptanceTimestamp, msg.sender, offererEthAddress);\r\n                return true;\r\n            }\r\n        }\r\n        return false;\r\n    }\r\n    mapping(uint32 => TimestampAndPriceForServices) get_selectedTimestampAndPriceForServices_from_reviewId;\r\n\r\n    function claimCompletion(uint32 reviewId, uint64 claimTimestamp)\r\n    external validate_reviewId(true, reviewId) returns(bool) {\r\n        emit CompletionClaimed(reviewId, claimTimestamp, get_requesterEthAddress_from_reviewId[reviewId], msg.sender);\r\n        return is_reviewIdClaimedComplete[reviewId] = true;\r\n    }\r\n\r\n    mapping (uint32 => bool) is_reviewIdClaimedComplete;\r\n\r\n    function approveCompletion(uint32 reviewId, uint64 approvalTimestamp, uint8 rank)\r\n    external validate_reviewId(true, reviewId) returns(uint rewardAmount) {\r\n        uint finalCustomersPrice = get_finalCustomersPrice_from_reviewId[reviewId];\r\n        rewardAmount = rewardCalculator.calculateRewardAmount(rank, finalCustomersPrice);\r\n    }\r\n\r\n    mapping(uint32 => uint) get_finalCustomersPrice_from_reviewId;\r\n\r\n    function rejectCompletion(uint32 reviewId, uint64 rejectionTimestamp)\r\n    external validate_reviewId(true, reviewId) returns(bool) {\r\n        emit CompletionRejected(reviewId, rejectionTimestamp, get_requesterEthAddress_from_reviewId[reviewId], msg.sender);\r\n        return is_reviewIdClaimedComplete[reviewId] = false;\r\n    }\r\n}",
  "sourcePath": "C:\\Users\\carlo\\Desktop\\Pedro's List\\contracts\\ReviewsController.sol",
  "compiler": {
    "name": "solc",
    "version": "0.4.24+commit.e67f0147.Emscripten.clang"
  },
  "schemaVersion": "2.0.1",
  "updatedAt": "2018-12-11T02:04:19.374Z"
}