{
  "contractName": "ReviewsController",
  "abi": [
    {
      "inputs": [
        {
          "name": "pedro_ERC20TokenAddress",
          "type": "address"
        },
        {
          "name": "rewardCalculatorAddress",
          "type": "address"
        },
        {
          "name": "priceCalculatorAddress",
          "type": "address"
        }
      ],
      "payable": false,
      "stateMutability": "nonpayable",
      "type": "constructor"
    },
    {
      "anonymous": false,
      "inputs": [
        {
          "indexed": true,
          "name": "reviewId",
          "type": "uint32"
        },
        {
          "indexed": true,
          "name": "requestTimestamp",
          "type": "uint64"
        },
        {
          "indexed": false,
          "name": "serviceIdArray",
          "type": "uint32[]"
        },
        {
          "indexed": false,
          "name": "requesterAddress",
          "type": "address"
        }
      ],
      "name": "ServiceRequested",
      "type": "event"
    },
    {
      "anonymous": false,
      "inputs": [
        {
          "indexed": true,
          "name": "reviewId",
          "type": "uint32"
        },
        {
          "indexed": true,
          "name": "offerTimestamp",
          "type": "uint64"
        },
        {
          "indexed": true,
          "name": "price",
          "type": "uint16"
        },
        {
          "indexed": false,
          "name": "offererAddress",
          "type": "address"
        }
      ],
      "name": "ServicesOffered",
      "type": "event"
    },
    {
      "anonymous": false,
      "inputs": [
        {
          "indexed": true,
          "name": "reviewId",
          "type": "uint32"
        },
        {
          "indexed": true,
          "name": "acceptanceTimestamp",
          "type": "uint64"
        },
        {
          "indexed": false,
          "name": "requesterAddress",
          "type": "address"
        },
        {
          "indexed": false,
          "name": "offererAddress",
          "type": "address"
        }
      ],
      "name": "OfferAccepted",
      "type": "event"
    },
    {
      "anonymous": false,
      "inputs": [
        {
          "indexed": true,
          "name": "reviewId",
          "type": "uint32"
        },
        {
          "indexed": true,
          "name": "claimTimestamp",
          "type": "uint64"
        },
        {
          "indexed": false,
          "name": "requesterAddress",
          "type": "address"
        },
        {
          "indexed": false,
          "name": "offererAddress",
          "type": "address"
        }
      ],
      "name": "CompletionClaimed",
      "type": "event"
    },
    {
      "anonymous": false,
      "inputs": [
        {
          "indexed": true,
          "name": "reviewId",
          "type": "uint32"
        },
        {
          "indexed": true,
          "name": "approvalTimestamp",
          "type": "uint64"
        },
        {
          "indexed": false,
          "name": "requesterAddress",
          "type": "address"
        },
        {
          "indexed": false,
          "name": "offererAddress",
          "type": "address"
        }
      ],
      "name": "CompletionApproved",
      "type": "event"
    },
    {
      "anonymous": false,
      "inputs": [
        {
          "indexed": true,
          "name": "reviewId",
          "type": "uint32"
        },
        {
          "indexed": true,
          "name": "rejectionTimestamp",
          "type": "uint64"
        },
        {
          "indexed": false,
          "name": "requesterAddress",
          "type": "address"
        },
        {
          "indexed": false,
          "name": "offererAddress",
          "type": "address"
        }
      ],
      "name": "CompletionRejected",
      "type": "event"
    },
    {
      "constant": false,
      "inputs": [
        {
          "name": "Pedro_ERC20TokenAddress",
          "type": "address"
        }
      ],
      "name": "setCurrentPedro_ERC20TokenAddress",
      "outputs": [],
      "payable": false,
      "stateMutability": "nonpayable",
      "type": "function"
    },
    {
      "constant": false,
      "inputs": [
        {
          "name": "RewardCalculatorAddress",
          "type": "address"
        }
      ],
      "name": "setCurrentRewardCalculatorAddress",
      "outputs": [],
      "payable": false,
      "stateMutability": "nonpayable",
      "type": "function"
    },
    {
      "constant": false,
      "inputs": [
        {
          "name": "PriceCalculatorAddress",
          "type": "address"
        }
      ],
      "name": "setCurrentPriceCalculatorAddress",
      "outputs": [],
      "payable": false,
      "stateMutability": "nonpayable",
      "type": "function"
    },
    {
      "constant": true,
      "inputs": [
        {
          "name": "reviewId",
          "type": "uint32"
        }
      ],
      "name": "getStateOfReviewId",
      "outputs": [
        {
          "name": "",
          "type": "uint8"
        }
      ],
      "payable": false,
      "stateMutability": "view",
      "type": "function"
    },
    {
      "constant": false,
      "inputs": [
        {
          "name": "reviewId",
          "type": "uint32"
        },
        {
          "name": "requestTimestamp",
          "type": "uint64"
        },
        {
          "name": "serviceIdArray",
          "type": "uint32[]"
        }
      ],
      "name": "requestServices",
      "outputs": [
        {
          "name": "",
          "type": "uint8"
        }
      ],
      "payable": false,
      "stateMutability": "nonpayable",
      "type": "function"
    },
    {
      "constant": false,
      "inputs": [
        {
          "name": "reviewId",
          "type": "uint32"
        },
        {
          "name": "offerTimestamp",
          "type": "uint64"
        },
        {
          "name": "providersPrice",
          "type": "uint16"
        }
      ],
      "name": "offerServices",
      "outputs": [
        {
          "name": "",
          "type": "uint8"
        }
      ],
      "payable": false,
      "stateMutability": "nonpayable",
      "type": "function"
    },
    {
      "constant": false,
      "inputs": [
        {
          "name": "reviewId",
          "type": "uint32"
        },
        {
          "name": "acceptanceTimestamp",
          "type": "uint64"
        },
        {
          "name": "offererAddress",
          "type": "address"
        }
      ],
      "name": "acceptOffer",
      "outputs": [
        {
          "name": "",
          "type": "uint8"
        }
      ],
      "payable": false,
      "stateMutability": "nonpayable",
      "type": "function"
    },
    {
      "constant": false,
      "inputs": [
        {
          "name": "reviewId",
          "type": "uint32"
        },
        {
          "name": "claimTimestamp",
          "type": "uint64"
        }
      ],
      "name": "claimCompletion",
      "outputs": [
        {
          "name": "",
          "type": "uint8"
        }
      ],
      "payable": false,
      "stateMutability": "nonpayable",
      "type": "function"
    },
    {
      "constant": false,
      "inputs": [
        {
          "name": "reviewId",
          "type": "uint32"
        },
        {
          "name": "approvalTimestamp",
          "type": "uint64"
        },
        {
          "name": "rank",
          "type": "uint8"
        }
      ],
      "name": "approveCompletion",
      "outputs": [
        {
          "name": "rewardAmount",
          "type": "uint256"
        }
      ],
      "payable": false,
      "stateMutability": "nonpayable",
      "type": "function"
    },
    {
      "constant": false,
      "inputs": [
        {
          "name": "reviewId",
          "type": "uint32"
        },
        {
          "name": "rejectionTimestamp",
          "type": "uint64"
        }
      ],
      "name": "rejectCompletion",
      "outputs": [
        {
          "name": "",
          "type": "uint8"
        }
      ],
      "payable": false,
      "stateMutability": "nonpayable",
      "type": "function"
    }
  ],
  "bytecode": "0x608060405234801561001057600080fd5b506040516060806112c483398101604090815281516020830151919092015160018054600160a060020a03948516600160a060020a031991821617918290556000805482169286169290921790915560038054938516938216939093179283905560028054821693851693909317909255600580549184169183169190911790819055600480549092169216919091179055611213806100b16000396000f3006080604052600436106100a35763ffffffff7c01000000000000000000000000000000000000000000000000000000006000350416633a30951e81146100a85780633ee4aa54146100eb578063613d0ead1461010e5780637800b4681461012f57806392abc2621461017d5780639f2ae1c1146101a8578063b644607e146101da578063b7fe042a14610205578063bd92a88e14610226578063f6395b7614610268575b600080fd5b3480156100b457600080fd5b506100d963ffffffff6004351667ffffffffffffffff6024351660ff6044351661029f565b60408051918252519081900360200190f35b3480156100f757600080fd5b5061010c600160a060020a03600435166105ee565b005b34801561011a57600080fd5b5061010c600160a060020a036004351661062a565b34801561013b57600080fd5b506101676004803563ffffffff16906024803567ffffffffffffffff1691604435918201910135610666565b6040805160ff9092168252519081900360200190f35b34801561018957600080fd5b5061016763ffffffff6004351667ffffffffffffffff60243516610788565b3480156101b457600080fd5b5061016763ffffffff6004351667ffffffffffffffff6024351661ffff6044351661089e565b3480156101e657600080fd5b5061016763ffffffff6004351667ffffffffffffffff60243516610cdb565b34801561021157600080fd5b5061010c600160a060020a0360043516610dee565b34801561023257600080fd5b5061024463ffffffff60043516610e2a565b6040518082600481111561025457fe5b60ff16815260200191505060405180910390f35b34801561027457600080fd5b5061016763ffffffff6004351667ffffffffffffffff60243516600160a060020a0360443516610e45565b63ffffffff83166000908152600860205260408120548190819081906001908890600160a060020a031633148080156102d55750825b806102e75750801580156102e7575082155b15156102f257600080fd5b60038a8163ffffffff821660009081526006602052604090205460ff16600481111561031a57fe5b1461032457600080fd5b600f60008d63ffffffff1663ffffffff16815260200190815260200160002060009054906101000a900463ffffffff1663ffffffff169750600c60008d63ffffffff1663ffffffff16815260200190815260200160002060000160149054906101000a900467ffffffffffffffff169650600260009054906101000a9004600160a060020a0316600160a060020a031663a98ffb848b8a8e8b6040518563ffffffff167c0100000000000000000000000000000000000000000000000000000000028152600401808560ff1660ff1681526020018481526020018367ffffffffffffffff1667ffffffffffffffff1681526020018267ffffffffffffffff1667ffffffffffffffff168152602001945050505050602060405180830381600087803b15801561045257600080fd5b505af1158015610466573d6000803e3d6000fd5b505050506040513d602081101561047c57600080fd5b505163ffffffff8d166000908152600d6020908152604080832060010154835482517fa9059cbb000000000000000000000000000000000000000000000000000000008152600160a060020a0392831660048201819052602482018890529351969f50929b50169363a9059cbb93604480840194938390030190829087803b15801561050757600080fd5b505af115801561051b573d6000803e3d6000fd5b505050506040513d602081101561053157600080fd5b8101908080519060200190929190505050508a67ffffffffffffffff168c63ffffffff167fd846181a5dc3e9f39db6fbb5d9bb03f402cfc6aec6d56eb745e624f54072af4533896040518083600160a060020a0316600160a060020a0316815260200182600160a060020a0316600160a060020a031681526020019250505060405180910390a363ffffffff8c166000908152600660205260409020805460ff1916600490811790915560ff169c9b505050505050505050505050565b6005805473ffffffffffffffffffffffffffffffffffffffff19908116600160a060020a03938416179182905560048054929093169116179055565b6003805473ffffffffffffffffffffffffffffffffffffffff19908116600160a060020a03938416179182905560028054929093169116179055565b600080858163ffffffff821660009081526006602052604090205460ff16600481111561068f57fe5b1461069957600080fd5b63ffffffff871660009081526007602052604090206106b99086866110ee565b5063ffffffff8716600081815260086020908152604091829020805473ffffffffffffffffffffffffffffffffffffffff191633908117909155825180830182905283815292830188905267ffffffffffffffff8a1693927f25714dae27812e4571d5ca9cc0347b443436a3a1d3d3c18b1d810e0cfd7f62b5928a928a9290918190606082019086908602808284376040519201829003965090945050505050a363ffffffff87166000908152600660205260409020805460ff19166001908117909155979650505050505050565b63ffffffff82166000908152600860205260408120546001908490600160a060020a031633148080156107b85750825b806107ca5750801580156107ca575082155b15156107d557600080fd5b6003868163ffffffff821660009081526006602052604090205460ff1660048111156107fd57fe5b1461080757600080fd5b63ffffffff8816600081815260086020908152604091829020548251600160a060020a0390911681523391810191909152815167ffffffffffffffff8b1693927fb57c101a773db34f6ebb963dfb18f94fdae8cbc273d3c42fbbacfacc585401d5928290030190a363ffffffff88166000908152600660205260409020805460ff1916600390811790915598975050505050505050565b63ffffffff83166000908152600860205260408120548190819081908790600160a060020a031633148080156108d15750825b806108e35750801580156108e3575082155b15156108ee57600080fd5b6001898163ffffffff821660009081526006602052604090205460ff16600481111561091657fe5b1461092057600080fd5b600960008c63ffffffff1663ffffffff168152602001908152602001600020600081819054906101000a900460ff168092919060010191906101000a81548160ff021916908360ff16021790555050600460009054906101000a9004600160a060020a0316600160a060020a0316638407fb0a8b8b6040518363ffffffff167c0100000000000000000000000000000000000000000000000000000000028152600401808367ffffffffffffffff1667ffffffffffffffff1681526020018261ffff1661ffff16815260200192505050602060405180830381600087803b158015610a0a57600080fd5b505af1158015610a1e573d6000803e3d6000fd5b505050506040513d6020811015610a3457600080fd5b81019080805190602001909291905050509650600860008c63ffffffff1663ffffffff16815260200190815260200160002060009054906101000a9004600160a060020a0316955060606040519081016040528087600160a060020a031681526020018b67ffffffffffffffff1681526020018861ffff16815250600a60008d63ffffffff1663ffffffff168152602001908152602001600020600033600160a060020a0316600160a060020a0316815260200190815260200160002060008201518160000160006101000a815481600160a060020a030219169083600160a060020a0316021790555060208201518160000160146101000a81548167ffffffffffffffff021916908367ffffffffffffffff160217905550604082015181600001601c6101000a81548161ffff021916908361ffff16021790555090505060606040519081016040528087600160a060020a0316815260200133600160a060020a031681526020018861ffff16815250600b60008d63ffffffff1663ffffffff16815260200190815260200160002060008c67ffffffffffffffff1667ffffffffffffffff16815260200190815260200160002060008201518160000160006101000a815481600160a060020a030219169083600160a060020a0316021790555060208201518160010160006101000a815481600160a060020a030219169083600160a060020a0316021790555060408201518160010160146101000a81548161ffff021916908361ffff1602179055509050508661ffff168a67ffffffffffffffff168c63ffffffff167f3105f6737188a7ebf5374e0f9c190524e3648e4e8a834fdef920bd4007a941d8336040518082600160a060020a0316600160a060020a0316815260200191505060405180910390a460015b9b9a5050505050505050505050565b63ffffffff82166000908152600d60205260408120600101548390600160a060020a03163314610d0a57600080fd5b6002848163ffffffff821660009081526006602052604090205460ff166004811115610d3257fe5b14610d3c57600080fd5b63ffffffff86166000818152600e60209081526040808320805467ffffffffffffffff191667ffffffffffffffff8b169081179091556008835292819020548151600160a060020a039091168152339281019290925280519293927f10558c218e21bd97ccfb8c05a6da15e8ee81720920241a20cd0ad3cd631f3e489281900390910190a363ffffffff86166000908152600660205260409020805460ff191660039081179091559695505050505050565b6001805473ffffffffffffffffffffffffffffffffffffffff19908116600160a060020a03938416179182905560008054929093169116179055565b63ffffffff1660009081526006602052604090205460ff1690565b6000610e4f6111a3565b63ffffffff85166000908152600960205260409020548590600160ff9091161015610e7957600080fd5b63ffffffff86166000908152600860205260409020546001908790600160a060020a03163314808015610ea95750825b80610ebb575080158015610ebb575082155b1515610ec657600080fd5b6001898163ffffffff821660009081526006602052604090205460ff166004811115610eee57fe5b14610ef857600080fd5b63ffffffff8b166000818152600a60209081526040808320600160a060020a03808f1680865291845282852083516060810185529054808316825267ffffffffffffffff74010000000000000000000000000000000000000000808304821684890190815261ffff7c0100000000000000000000000000000000000000000000000000000000948590048116868a019081528c8c52600c8b52898c20875181548551935185169098027fffff0000ffffffffffffffffffffffffffffffffffffffffffffffffffffffff93881687027fffffffff0000000000000000ffffffffffffffffffffffffffffffffffffffff928c1673ffffffffffffffffffffffffffffffffffffffff199a8b1617929092169190911792909216919091179055600b8a52888b20915184168b52908952878a208b8b52600d8a52998890208a548154861690881617815560019a8b01805491909b018054909516961695909517808455985481900490941690930275ffff000000000000000000000000000000000000000019909716969096179095558251338152938401919091528151939b508e1693927f4d59ffd64daaf4c5e7d11d6b0dccc69e7b5b746404ca307e23cdb8c814c3fa119281900390910190a363ffffffff8b166000908152600660205260409020805460ff19166002908117909155610ccc565b828054828255906000526020600020906007016008900481019282156111935791602002820160005b8382111561116157833563ffffffff1683826101000a81548163ffffffff021916908363ffffffff1602179055509260200192600401602081600301049283019260010302611117565b80156111915782816101000a81549063ffffffff0219169055600401602081600301049283019260010302611161565b505b5061119f9291506111c3565b5090565b604080516060810182526000808252602082018190529181019190915290565b6111e491905b8082111561119f57805463ffffffff191681556001016111c9565b905600a165627a7a7230582059799a9be069e111555dcf5260c2f5e2302e89012fa0caef1c14279b8d6442a80029",
  "source": "// solium-disable linebreak-style\r\npragma solidity ^0.4.23;\r\n\r\nimport \"./IServiceStateController.sol\";\r\nimport \"./RewardCalculator.sol\";\r\nimport \"./Pedro_ERC20Token.sol\";\r\nimport \"./PriceCalculator.sol\";\r\n\r\ncontract ReviewsController is IServiceStateController {\r\n    \r\n    Pedro_ERC20Token pedro_ERC20Token;\r\n    address currentPedro_ERC20Token;\r\n\r\n    RewardCalculator rewardCalculator;\r\n    address currentRewardCalculator;\r\n\r\n    PriceCalculator priceCalculator;\r\n    address currentPriceCalculator;\r\n    \r\n\r\n\r\n\r\n    constructor(\r\n        address pedro_ERC20TokenAddress,\r\n        address rewardCalculatorAddress,\r\n        address priceCalculatorAddress\r\n    ) \r\n    public \r\n    {\r\n        currentPedro_ERC20Token = pedro_ERC20TokenAddress;\r\n        pedro_ERC20Token = Pedro_ERC20Token(currentPedro_ERC20Token);\r\n\r\n        currentRewardCalculator = rewardCalculatorAddress;\r\n        rewardCalculator = RewardCalculator(currentRewardCalculator);\r\n\r\n        currentPriceCalculator = priceCalculatorAddress;\r\n        priceCalculator = PriceCalculator(currentPriceCalculator);\r\n    }\r\n\r\n\r\n\r\n\r\n    function setCurrentPedro_ERC20TokenAddress(address Pedro_ERC20TokenAddress) \r\n    external \r\n    {\r\n        currentPedro_ERC20Token = Pedro_ERC20TokenAddress;\r\n        pedro_ERC20Token = Pedro_ERC20Token(currentPedro_ERC20Token);\r\n    }\r\n\r\n\r\n\r\n\r\n    function setCurrentRewardCalculatorAddress(address RewardCalculatorAddress) \r\n    external \r\n    {\r\n        currentRewardCalculator = RewardCalculatorAddress;\r\n        rewardCalculator = RewardCalculator(currentRewardCalculator);\r\n    }\r\n\r\n\r\n\r\n\r\n    function setCurrentPriceCalculatorAddress(address PriceCalculatorAddress) \r\n    external \r\n    {\r\n        currentPriceCalculator = PriceCalculatorAddress;\r\n        priceCalculator = PriceCalculator(currentPriceCalculator);\r\n    }\r\n\r\n\r\n\r\n\r\n    function getStateOfReviewId(uint32 reviewId) \r\n    external\r\n    view \r\n    returns(state)\r\n    {\r\n        return reviewIdIn_state[reviewId];\r\n    }\r\n\r\n    mapping(uint32 => state) reviewIdIn_state;\r\n\r\n\r\n\r\n\r\n    function requestServices(uint32 reviewId, uint64 requestTimestamp, uint32[] serviceIdArray)  \r\n    external\r\n        reviewId_isInState(state.UNEXISTENT, reviewId)\r\n    returns(uint8) \r\n    {\r\n        reviewIdHas_services[reviewId] = serviceIdArray;\r\n        reviewIdHas_requesterAddress[reviewId] = msg.sender;\r\n\r\n        emit ServiceRequested(\r\n            reviewId, \r\n            requestTimestamp, \r\n            serviceIdArray, \r\n            msg.sender\r\n        );\r\n\r\n        return uint8(reviewIdIn_state[reviewId] = state.AWATING_DEAL);\r\n    }\r\n\r\n    modifier reviewId_isInState(state shouldBe, uint32 reviewId) \r\n    {\r\n        require(reviewIdIn_state[reviewId] == shouldBe);\r\n        _;\r\n    }\r\n    enum state{\r\n        UNEXISTENT,\r\n        AWATING_DEAL,\r\n        STARTED,\r\n        AWAITING_APPROVAL,\r\n        COMPLETE\r\n    }\r\n    mapping(uint32 => uint32[]) reviewIdHas_services;\r\n    mapping(uint32 => address)  reviewIdHas_requesterAddress;\r\n\r\n\r\n\r\n\r\n    function offerServices(uint32 reviewId, uint64 offerTimestamp, uint16 providersPrice) \r\n    external \r\n        msgSender_mustBeRequester(false, reviewId)\r\n        reviewId_isInState(state.AWATING_DEAL, reviewId)\r\n    returns(uint8) \r\n    {\r\n        reviewIdHas_offerCount[reviewId]++;\r\n\r\n        uint16 providersPricePlusFee = priceCalculator.evaluate(\r\n            offerTimestamp,\r\n            providersPrice\r\n        );\r\n        \r\n        address requesterAddress = reviewIdHas_requesterAddress[reviewId];\r\n\r\n        reviewIdKnows_offererAddressHas_OfferFromAddress\r\n            [reviewId][msg.sender] = OfferFromAddress(\r\n                requesterAddress,\r\n                offerTimestamp,\r\n                providersPricePlusFee\r\n            );\r\n\r\n        reviewIdKnows_offerTimestampWhen_OfferAtTimestamp\r\n            [reviewId][offerTimestamp] = OfferAtTimestamp(\r\n                requesterAddress,\r\n                msg.sender,\r\n                providersPricePlusFee\r\n            );\r\n\r\n        emit ServicesOffered(\r\n            reviewId, \r\n            offerTimestamp, \r\n            providersPricePlusFee, \r\n            msg.sender\r\n        );\r\n        \r\n        return uint8(state.AWATING_DEAL);\r\n    }\r\n\r\n    modifier msgSender_mustBeRequester(bool shouldBe, uint32 reviewId) \r\n    {\r\n        bool msgSender_isRequester = msg.sender == reviewIdHas_requesterAddress[reviewId];\r\n        require(\r\n            msgSender_isRequester && shouldBe   ||\r\n            ! msgSender_isRequester && ! shouldBe\r\n        );\r\n        _;\r\n    }\r\n    mapping(uint32 => uint8) reviewIdHas_offerCount;\r\n    mapping(uint32 => mapping(address => OfferFromAddress)) reviewIdKnows_offererAddressHas_OfferFromAddress;\r\n    mapping(uint32 => mapping(uint64 => OfferAtTimestamp))  reviewIdKnows_offerTimestampWhen_OfferAtTimestamp;\r\n    struct OfferFromAddress \r\n    {\r\n        address requesterAddress;\r\n        uint64 atOfferTimestamp;\r\n        uint16 forPriceOf;\r\n    }\r\n    struct OfferAtTimestamp \r\n    {\r\n        address requesterAddress;\r\n        address byOffererAddress;\r\n        uint16 forPriceOf;\r\n    }\r\n\r\n\r\n\r\n\r\n    function acceptOffer(uint32 reviewId, uint64 acceptanceTimestamp, address offererAddress)\r\n    external\r\n        offerCount_isAtLeast1(reviewId)\r\n        msgSender_mustBeRequester(true, reviewId)\r\n        reviewId_isInState(state.AWATING_DEAL, reviewId)\r\n    returns(uint8)\r\n    {\r\n\r\n        OfferFromAddress memory _offerFromAddress;\r\n        reviewIdHas_chosenOfferFrom1Address\r\n            [reviewId] = (\r\n                _offerFromAddress = reviewIdKnows_offererAddressHas_OfferFromAddress[reviewId][offererAddress]\r\n            );\r\n\r\n        reviewIdHas_chosenOfferAt1Timestamp\r\n            [reviewId] = reviewIdKnows_offerTimestampWhen_OfferAtTimestamp[reviewId][_offerFromAddress.atOfferTimestamp];\r\n        \r\n        emit OfferAccepted(\r\n            reviewId, \r\n            acceptanceTimestamp, \r\n            msg.sender, \r\n            offererAddress\r\n        );\r\n\r\n        return uint8(reviewIdIn_state[reviewId] = state.STARTED);\r\n    }\r\n\r\n    modifier offerCount_isAtLeast1(uint32 reviewId) \r\n    {\r\n        require(reviewIdHas_offerCount[reviewId] >= 1);\r\n        _;\r\n    }\r\n    mapping(uint32 => OfferFromAddress) reviewIdHas_chosenOfferFrom1Address;\r\n    mapping(uint32 => OfferAtTimestamp) reviewIdHas_chosenOfferAt1Timestamp;\r\n\r\n\r\n\r\n\r\n    function claimCompletion(uint32 reviewId, uint64 claimTimestamp)\r\n    external \r\n        msgSender_mustBeChosenOfferer(reviewId)\r\n        reviewId_isInState(state.STARTED, reviewId)\r\n    returns(uint8) \r\n    {\r\n        reviewIdWasClaimedCompleteAt_timestampWhen[reviewId] = claimTimestamp;\r\n        \r\n        emit CompletionClaimed(\r\n            reviewId, \r\n            claimTimestamp, \r\n            reviewIdHas_requesterAddress[reviewId], \r\n            msg.sender\r\n        );\r\n\r\n        return uint8(reviewIdIn_state[reviewId] = state.AWAITING_APPROVAL);\r\n    }\r\n\r\n    modifier msgSender_mustBeChosenOfferer(uint32 reviewId) \r\n    {\r\n        require(msg.sender == reviewIdHas_chosenOfferAt1Timestamp[reviewId].byOffererAddress);\r\n        _;\r\n    }\r\n    mapping(uint32 => uint64) reviewIdWasClaimedCompleteAt_timestampWhen;\r\n\r\n\r\n\r\n\r\n    function approveCompletion(uint32 reviewId, uint64 approvalTimestamp, uint8 rank)\r\n    external \r\n        msgSender_mustBeRequester(true, reviewId) \r\n        reviewId_isInState(state.AWAITING_APPROVAL, reviewId)\r\n    returns(uint rewardAmount) \r\n    {\r\n        uint price = reviewIdSoldAt_price[reviewId];\r\n        uint64 offerTimestamp = reviewIdHas_chosenOfferFrom1Address[reviewId].atOfferTimestamp;\r\n        \r\n        rewardAmount = rewardCalculator.evaluate(            \r\n            rank, \r\n            price,\r\n            approvalTimestamp,\r\n            offerTimestamp\r\n        );\r\n        \r\n        address offererAddress = reviewIdHas_chosenOfferAt1Timestamp[reviewId].byOffererAddress;\r\n\r\n        pedro_ERC20Token.transfer(\r\n            offererAddress,\r\n            rewardAmount\r\n        );\r\n\r\n        emit CompletionApproved(\r\n            reviewId, \r\n            approvalTimestamp, \r\n            msg.sender, \r\n            offererAddress\r\n        );\r\n\r\n        return uint8(reviewIdIn_state[reviewId] = state.COMPLETE);\r\n    }\r\n\r\n    mapping(uint32 => uint32) reviewIdSoldAt_price;\r\n\r\n\r\n\r\n\r\n    function rejectCompletion(uint32 reviewId, uint64 rejectionTimestamp)\r\n    external \r\n        msgSender_mustBeRequester(true, reviewId)\r\n        reviewId_isInState(state.AWAITING_APPROVAL, reviewId)\r\n    returns(uint8) \r\n    {\r\n        emit CompletionRejected(\r\n            reviewId, \r\n            rejectionTimestamp, \r\n            reviewIdHas_requesterAddress[reviewId], \r\n            msg.sender\r\n        );\r\n        \r\n        return uint8(reviewIdIn_state[reviewId] = state.AWAITING_APPROVAL);\r\n    }\r\n}",
  "sourcePath": "C:\\Users\\carlo\\Desktop\\Pedro's List\\contracts\\ReviewsController.sol",
  "compiler": {
    "name": "solc",
    "version": "0.4.24+commit.e67f0147.Emscripten.clang"
  },
  "schemaVersion": "2.0.1",
  "updatedAt": "2018-12-24T03:19:17.829Z"
}